{
  "_format": "hh-sol-artifact-1",
  "contractName": "IndexContract",
  "sourceName": "contracts/IndexContract.sol",
  "abi": [
    {
      "inputs": [
        {
          "internalType": "address",
          "name": "_tokenContract",
          "type": "address"
        },
        {
          "internalType": "address[]",
          "name": "vaultTokens",
          "type": "address[]"
        },
        {
          "internalType": "address[]",
          "name": "tokens",
          "type": "address[]"
        }
      ],
      "stateMutability": "nonpayable",
      "type": "constructor"
    },
    {
      "anonymous": false,
      "inputs": [
        {
          "indexed": false,
          "internalType": "uint256",
          "name": "amount",
          "type": "uint256"
        }
      ],
      "name": "liquidtyRemoved",
      "type": "event"
    },
    {
      "inputs": [
        {
          "internalType": "address",
          "name": "",
          "type": "address"
        }
      ],
      "name": "VaultTokenToToken",
      "outputs": [
        {
          "internalType": "address",
          "name": "",
          "type": "address"
        }
      ],
      "stateMutability": "view",
      "type": "function"
    },
    {
      "inputs": [],
      "name": "aWBtcContract",
      "outputs": [
        {
          "internalType": "contract IAToken",
          "name": "",
          "type": "address"
        }
      ],
      "stateMutability": "view",
      "type": "function"
    },
    {
      "inputs": [],
      "name": "aWbtcOnContract",
      "outputs": [
        {
          "internalType": "uint256",
          "name": "",
          "type": "uint256"
        }
      ],
      "stateMutability": "view",
      "type": "function"
    },
    {
      "inputs": [],
      "name": "aWbtcOnContractValue",
      "outputs": [
        {
          "internalType": "uint256",
          "name": "",
          "type": "uint256"
        }
      ],
      "stateMutability": "view",
      "type": "function"
    },
    {
      "inputs": [],
      "name": "aWethContract",
      "outputs": [
        {
          "internalType": "contract IAToken",
          "name": "",
          "type": "address"
        }
      ],
      "stateMutability": "view",
      "type": "function"
    },
    {
      "inputs": [],
      "name": "aWethOnContract",
      "outputs": [
        {
          "internalType": "uint256",
          "name": "",
          "type": "uint256"
        }
      ],
      "stateMutability": "view",
      "type": "function"
    },
    {
      "inputs": [],
      "name": "aaveV2LendingPool",
      "outputs": [
        {
          "internalType": "contract ILendingPool",
          "name": "",
          "type": "address"
        }
      ],
      "stateMutability": "view",
      "type": "function"
    },
    {
      "inputs": [
        {
          "internalType": "address",
          "name": "",
          "type": "address"
        }
      ],
      "name": "addressToAmountFunded",
      "outputs": [
        {
          "internalType": "uint256",
          "name": "",
          "type": "uint256"
        }
      ],
      "stateMutability": "view",
      "type": "function"
    },
    {
      "inputs": [],
      "name": "balanceFund",
      "outputs": [],
      "stateMutability": "nonpayable",
      "type": "function"
    },
    {
      "inputs": [],
      "name": "btcUsdPrice",
      "outputs": [
        {
          "internalType": "uint256",
          "name": "",
          "type": "uint256"
        }
      ],
      "stateMutability": "view",
      "type": "function"
    },
    {
      "inputs": [
        {
          "internalType": "uint256",
          "name": "indexTokenAmount",
          "type": "uint256"
        }
      ],
      "name": "calculateIndexTokensValue",
      "outputs": [
        {
          "internalType": "uint256",
          "name": "indexTokenAmountValue",
          "type": "uint256"
        }
      ],
      "stateMutability": "nonpayable",
      "type": "function"
    },
    {
      "inputs": [],
      "name": "calculateIndexValue",
      "outputs": [
        {
          "internalType": "uint256",
          "name": "valueOfIndex",
          "type": "uint256"
        },
        {
          "internalType": "uint256",
          "name": "valueOfVaultPositions",
          "type": "uint256"
        }
      ],
      "stateMutability": "nonpayable",
      "type": "function"
    },
    {
      "inputs": [],
      "name": "convertToWeth",
      "outputs": [],
      "stateMutability": "nonpayable",
      "type": "function"
    },
    {
      "inputs": [
        {
          "internalType": "address",
          "name": "token",
          "type": "address"
        },
        {
          "internalType": "uint256",
          "name": "amount",
          "type": "uint256"
        }
      ],
      "name": "depositToAave",
      "outputs": [],
      "stateMutability": "nonpayable",
      "type": "function"
    },
    {
      "inputs": [],
      "name": "ethUsdPrice",
      "outputs": [
        {
          "internalType": "uint256",
          "name": "",
          "type": "uint256"
        }
      ],
      "stateMutability": "view",
      "type": "function"
    },
    {
      "inputs": [
        {
          "internalType": "address",
          "name": "_tokenIn",
          "type": "address"
        },
        {
          "internalType": "address",
          "name": "_tokenOut",
          "type": "address"
        },
        {
          "internalType": "uint256",
          "name": "_amountIn",
          "type": "uint256"
        }
      ],
      "name": "getAmountOutMin",
      "outputs": [
        {
          "internalType": "uint256",
          "name": "",
          "type": "uint256"
        }
      ],
      "stateMutability": "view",
      "type": "function"
    },
    {
      "inputs": [],
      "name": "getEthPrice",
      "outputs": [
        {
          "internalType": "uint256",
          "name": "ethPrice",
          "type": "uint256"
        }
      ],
      "stateMutability": "view",
      "type": "function"
    },
    {
      "inputs": [],
      "name": "getWbtcPrice",
      "outputs": [
        {
          "internalType": "uint256",
          "name": "wbtcPrice",
          "type": "uint256"
        }
      ],
      "stateMutability": "view",
      "type": "function"
    },
    {
      "inputs": [],
      "name": "indexValue",
      "outputs": [
        {
          "internalType": "uint256",
          "name": "",
          "type": "uint256"
        }
      ],
      "stateMutability": "view",
      "type": "function"
    },
    {
      "inputs": [],
      "name": "indexValueUSD",
      "outputs": [
        {
          "internalType": "uint256",
          "name": "",
          "type": "uint256"
        }
      ],
      "stateMutability": "view",
      "type": "function"
    },
    {
      "inputs": [],
      "name": "inverseIndexProportionBTCx100",
      "outputs": [
        {
          "internalType": "uint256",
          "name": "",
          "type": "uint256"
        }
      ],
      "stateMutability": "view",
      "type": "function"
    },
    {
      "inputs": [],
      "name": "rebalanceEthHeavy",
      "outputs": [],
      "stateMutability": "nonpayable",
      "type": "function"
    },
    {
      "inputs": [],
      "name": "rebalanceExistingVault",
      "outputs": [],
      "stateMutability": "nonpayable",
      "type": "function"
    },
    {
      "inputs": [],
      "name": "receive_funds",
      "outputs": [],
      "stateMutability": "payable",
      "type": "function"
    },
    {
      "inputs": [
        {
          "internalType": "uint256",
          "name": "amount",
          "type": "uint256"
        }
      ],
      "name": "returnEth",
      "outputs": [],
      "stateMutability": "nonpayable",
      "type": "function"
    },
    {
      "inputs": [
        {
          "internalType": "uint256",
          "name": "amount",
          "type": "uint256"
        }
      ],
      "name": "returnWeth",
      "outputs": [],
      "stateMutability": "nonpayable",
      "type": "function"
    },
    {
      "inputs": [
        {
          "internalType": "address",
          "name": "_tokenIn",
          "type": "address"
        },
        {
          "internalType": "address",
          "name": "_tokenOut",
          "type": "address"
        },
        {
          "internalType": "uint256",
          "name": "_amountIn",
          "type": "uint256"
        },
        {
          "internalType": "uint256",
          "name": "_amountOutMin",
          "type": "uint256"
        },
        {
          "internalType": "address",
          "name": "_to",
          "type": "address"
        }
      ],
      "name": "swap",
      "outputs": [],
      "stateMutability": "nonpayable",
      "type": "function"
    },
    {
      "inputs": [],
      "name": "tokenContract",
      "outputs": [
        {
          "internalType": "contract IIndexToken",
          "name": "",
          "type": "address"
        }
      ],
      "stateMutability": "view",
      "type": "function"
    },
    {
      "inputs": [
        {
          "internalType": "address",
          "name": "",
          "type": "address"
        }
      ],
      "name": "tokenIndexValues",
      "outputs": [
        {
          "internalType": "uint256",
          "name": "",
          "type": "uint256"
        }
      ],
      "stateMutability": "view",
      "type": "function"
    },
    {
      "inputs": [],
      "name": "updateAwbtcOnContractValue",
      "outputs": [],
      "stateMutability": "nonpayable",
      "type": "function"
    },
    {
      "inputs": [],
      "name": "updateHoldings",
      "outputs": [],
      "stateMutability": "nonpayable",
      "type": "function"
    },
    {
      "inputs": [],
      "name": "updateIndexValueUSD",
      "outputs": [],
      "stateMutability": "nonpayable",
      "type": "function"
    },
    {
      "inputs": [],
      "name": "wbtcContract",
      "outputs": [
        {
          "internalType": "contract IWETH",
          "name": "",
          "type": "address"
        }
      ],
      "stateMutability": "view",
      "type": "function"
    },
    {
      "inputs": [],
      "name": "wbtcOnContract",
      "outputs": [
        {
          "internalType": "uint256",
          "name": "",
          "type": "uint256"
        }
      ],
      "stateMutability": "view",
      "type": "function"
    },
    {
      "inputs": [],
      "name": "wethBalance",
      "outputs": [
        {
          "internalType": "uint256",
          "name": "_balance",
          "type": "uint256"
        }
      ],
      "stateMutability": "view",
      "type": "function"
    },
    {
      "inputs": [],
      "name": "wethContract",
      "outputs": [
        {
          "internalType": "contract IWETH",
          "name": "",
          "type": "address"
        }
      ],
      "stateMutability": "view",
      "type": "function"
    },
    {
      "inputs": [],
      "name": "wethOnContract",
      "outputs": [
        {
          "internalType": "uint256",
          "name": "",
          "type": "uint256"
        }
      ],
      "stateMutability": "view",
      "type": "function"
    },
    {
      "inputs": [
        {
          "internalType": "uint256",
          "name": "tokenAmount",
          "type": "uint256"
        }
      ],
      "name": "withdraw",
      "outputs": [],
      "stateMutability": "nonpayable",
      "type": "function"
    },
    {
      "inputs": [],
      "name": "withdrawalTokenValue",
      "outputs": [
        {
          "internalType": "uint256",
          "name": "",
          "type": "uint256"
        }
      ],
      "stateMutability": "view",
      "type": "function"
    },
    {
      "stateMutability": "payable",
      "type": "receive"
    }
  ],
  "bytecode": "0x60806040523480156200001157600080fd5b5060405162004e8c38038062004e8c83398181016040528101906200003791906200056f565b60005b6008805490508160ff161015620000e457828160ff168151811062000064576200006362000609565b5b602002602001015160088260ff168154811062000086576200008562000609565b5b9060005260206000200160006101000a81548173ffffffffffffffffffffffffffffffffffffffff021916908373ffffffffffffffffffffffffffffffffffffffff1602179055508080620000db9062000674565b9150506200003a565b50826000806101000a81548173ffffffffffffffffffffffffffffffffffffffff021916908373ffffffffffffffffffffffffffffffffffffffff16021790555073c02aaa39b223fe8d0a0e5c4f27ead9083c756cc2600160006101000a81548173ffffffffffffffffffffffffffffffffffffffff021916908373ffffffffffffffffffffffffffffffffffffffff160217905550732260fac5e5542a773aa44fbcfedf7c193bc2c599600260006101000a81548173ffffffffffffffffffffffffffffffffffffffff021916908373ffffffffffffffffffffffffffffffffffffffff160217905550739ff58f4ffb29fa2266ab25e75e2a8b3503311656600560006101000a81548173ffffffffffffffffffffffffffffffffffffffff021916908373ffffffffffffffffffffffffffffffffffffffff16021790555073030ba81f1c18d280636f32af80b9aad02cf0854e600460006101000a81548173ffffffffffffffffffffffffffffffffffffffff021916908373ffffffffffffffffffffffffffffffffffffffff160217905550737d2768de32b0b80b7a3454c06bdac94a69ddc7a9600360006101000a81548173ffffffffffffffffffffffffffffffffffffffff021916908373ffffffffffffffffffffffffffffffffffffffff16021790555073deb288f737066589598e9214e782fa5a8ed689e8600660006101000a81548173ffffffffffffffffffffffffffffffffffffffff021916908373ffffffffffffffffffffffffffffffffffffffff160217905550735f4ec3df9cbd43714fe2740f5e3616155c5b8419600760006101000a81548173ffffffffffffffffffffffffffffffffffffffff021916908373ffffffffffffffffffffffffffffffffffffffff160217905550505050620006a2565b6000604051905090565b600080fd5b600080fd5b600073ffffffffffffffffffffffffffffffffffffffff82169050919050565b6000620003c28262000395565b9050919050565b620003d481620003b5565b8114620003e057600080fd5b50565b600081519050620003f481620003c9565b92915050565b600080fd5b6000601f19601f8301169050919050565b7f4e487b7100000000000000000000000000000000000000000000000000000000600052604160045260246000fd5b6200044a82620003ff565b810181811067ffffffffffffffff821117156200046c576200046b62000410565b5b80604052505050565b60006200048162000381565b90506200048f82826200043f565b919050565b600067ffffffffffffffff821115620004b257620004b162000410565b5b602082029050602081019050919050565b600080fd5b6000620004df620004d98462000494565b62000475565b90508083825260208201905060208402830185811115620005055762000504620004c3565b5b835b818110156200053257806200051d8882620003e3565b84526020840193505060208101905062000507565b5050509392505050565b600082601f830112620005545762000553620003fa565b5b815162000566848260208601620004c8565b91505092915050565b6000806000606084860312156200058b576200058a6200038b565b5b60006200059b86828701620003e3565b935050602084015167ffffffffffffffff811115620005bf57620005be62000390565b5b620005cd868287016200053c565b925050604084015167ffffffffffffffff811115620005f157620005f062000390565b5b620005ff868287016200053c565b9150509250925092565b7f4e487b7100000000000000000000000000000000000000000000000000000000600052603260045260246000fd5b7f4e487b7100000000000000000000000000000000000000000000000000000000600052601160045260246000fd5b600060ff82169050919050565b6000620006818262000667565b915060ff820362000697576200069662000638565b5b600182019050919050565b6147da80620006b26000396000f3fe6080604052600436106102335760003560e01c80635fdc68f61161012e578063b11af6ec116100ab578063e123a2311161006f578063e123a23114610791578063e822eb32146107ce578063eeb149e7146107f9578063f561bd4614610822578063fbdf82ae1461084d57610242565b8063b11af6ec146106cf578063c10cf190146106e6578063c51d075814610711578063cffbfc7f1461073d578063d5bcb9b51461076857610242565b806387002c59116100f257806387002c59146106225780638c8f4cbd146106395780638cd99f54146106625780639478ab8c146106795780639e0ae6f0146106a457610242565b80635fdc68f61461054d57806367c9b017146105785780636cec5dd3146105a35780636d5a4fa1146105e0578063807a012d146105f757610242565b80633a387d5a116101bc5780634780eac1116101805780634780eac1146104ab57806355a373d6146104d657806356f9349014610501578063589726fc1461050b5780635ce62c7a1461053657610242565b80633a387d5a146103b05780633c0de0b1146103db5780633c50eec1146104065780633e47d6f314610443578063453e97b51461048057610242565b8063218ebdce11610203578063218ebdce146102dd57806323b6a13d146103085780632e1a7d4d146103315780632f6b81431461035a57806330e2cc401461038557610242565b80622b169c146102475780630341a0c21461025e57806305ee6c3414610289578063060bd2d0146102a057610242565b3661024257610240610878565b005b600080fd5b34801561025357600080fd5b5061025c610967565b005b34801561026a57600080fd5b50610273610f2d565b6040516102809190613a55565b60405180910390f35b34801561029557600080fd5b5061029e610f33565b005b3480156102ac57600080fd5b506102c760048036038101906102c29190613ae2565b6119dc565b6040516102d49190613a55565b60405180910390f35b3480156102e957600080fd5b506102f26119f4565b6040516102ff9190613a55565b60405180910390f35b34801561031457600080fd5b5061032f600480360381019061032a9190613b3b565b611a95565b005b34801561033d57600080fd5b5061035860048036038101906103539190613b3b565b611b39565b005b34801561036657600080fd5b5061036f6121e0565b60405161037c9190613a55565b60405180910390f35b34801561039157600080fd5b5061039a612283565b6040516103a79190613a55565b60405180910390f35b3480156103bc57600080fd5b506103c5612289565b6040516103d29190613a55565b60405180910390f35b3480156103e757600080fd5b506103f061228f565b6040516103fd9190613a55565b60405180910390f35b34801561041257600080fd5b5061042d60048036038101906104289190613b68565b612295565b60405161043a9190613a55565b60405180910390f35b34801561044f57600080fd5b5061046a60048036038101906104659190613ae2565b612634565b6040516104779190613a55565b60405180910390f35b34801561048c57600080fd5b5061049561264c565b6040516104a29190613a55565b60405180910390f35b3480156104b757600080fd5b506104c0612652565b6040516104cd9190613c1a565b60405180910390f35b3480156104e257600080fd5b506104eb612678565b6040516104f89190613c56565b60405180910390f35b610509610878565b005b34801561051757600080fd5b5061052061269c565b60405161052d9190613a55565b60405180910390f35b34801561054257600080fd5b5061054b6126a2565b005b34801561055957600080fd5b506105626126ce565b60405161056f9190613a55565b60405180910390f35b34801561058457600080fd5b5061058d6126d4565b60405161059a9190613a55565b60405180910390f35b3480156105af57600080fd5b506105ca60048036038101906105c59190613ae2565b612775565b6040516105d79190613c80565b60405180910390f35b3480156105ec57600080fd5b506105f56127a8565b005b34801561060357600080fd5b5061060c612a17565b6040516106199190613c1a565b60405180910390f35b34801561062e57600080fd5b50610637612a3d565b005b34801561064557600080fd5b50610660600480360381019061065b9190613b3b565b612d31565b005b34801561066e57600080fd5b50610677612d7b565b005b34801561068557600080fd5b5061068e612e90565b60405161069b9190613a55565b60405180910390f35b3480156106b057600080fd5b506106b9612e96565b6040516106c69190613cbc565b60405180910390f35b3480156106db57600080fd5b506106e4612ebc565b005b3480156106f257600080fd5b506106fb612ef2565b6040516107089190613a55565b60405180910390f35b34801561071d57600080fd5b50610726612ef8565b604051610734929190613cd7565b60405180910390f35b34801561074957600080fd5b506107526130cf565b60405161075f9190613a55565b60405180910390f35b34801561077457600080fd5b5061078f600480360381019061078a9190613d00565b6130d5565b005b34801561079d57600080fd5b506107b860048036038101906107b39190613b3b565b6134df565b6040516107c59190613a55565b60405180910390f35b3480156107da57600080fd5b506107e36135a7565b6040516107f09190613d9c565b60405180910390f35b34801561080557600080fd5b50610820600480360381019061081b9190613db7565b6135cd565b005b34801561082e57600080fd5b50610837613665565b6040516108449190613cbc565b60405180910390f35b34801561085957600080fd5b5061086261368b565b60405161086f9190613a55565b60405180910390f35b67016345785d8a000034116108c2576040517f08c379a00000000000000000000000000000000000000000000000000000000081526004016108b990613e7a565b60405180910390fd5b6108ca6127a8565b60006108d534613691565b905060008054906101000a900473ffffffffffffffffffffffffffffffffffffffff1673ffffffffffffffffffffffffffffffffffffffff166340c10f1933836040518363ffffffff1660e01b8152600401610932929190613e9a565b600060405180830381600087803b15801561094c57600080fd5b505af1158015610960573d6000803e3d6000fd5b5050505050565b6109a56040518060400160405280600e81526020017f62616c616e63696e672066756e64000000000000000000000000000000000000815250613845565b60006109af612ef8565b9150506109f16040518060400160405280600f81526020017f7661756c742076616c75653a2025730000000000000000000000000000000000815250826138de565b60008103610f2157600160009054906101000a900473ffffffffffffffffffffffffffffffffffffffff1673ffffffffffffffffffffffffffffffffffffffff166370a08231306040518263ffffffff1660e01b8152600401610a549190613c80565b602060405180830381865afa158015610a71573d6000803e3d6000fd5b505050506040513d601f19601f82011682018060405250810190610a959190613ed8565b600d8190555060006002600d54610aac9190613f63565b90506000610ae373c02aaa39b223fe8d0a0e5c4f27ead9083c756cc2732260fac5e5542a773aa44fbcfedf7c193bc2c59984612295565b9050610b1a73c02aaa39b223fe8d0a0e5c4f27ead9083c756cc2732260fac5e5542a773aa44fbcfedf7c193bc2c5998484306130d5565b600260009054906101000a900473ffffffffffffffffffffffffffffffffffffffff1673ffffffffffffffffffffffffffffffffffffffff166370a08231306040518263ffffffff1660e01b8152600401610b759190613c80565b602060405180830381865afa158015610b92573d6000803e3d6000fd5b505050506040513d601f19601f82011682018060405250810190610bb69190613ed8565b600f81905550600160009054906101000a900473ffffffffffffffffffffffffffffffffffffffff1673ffffffffffffffffffffffffffffffffffffffff1663095ea7b3600360009054906101000a900473ffffffffffffffffffffffffffffffffffffffff167fffffffffffffffffffffffffffffffffffffffffffffffffffffffffffffffff6040518363ffffffff1660e01b8152600401610c5b929190613fcf565b6020604051808303816000875af1158015610c7a573d6000803e3d6000fd5b505050506040513d601f19601f82011682018060405250810190610c9e9190614030565b50600260009054906101000a900473ffffffffffffffffffffffffffffffffffffffff1673ffffffffffffffffffffffffffffffffffffffff1663095ea7b3600360009054906101000a900473ffffffffffffffffffffffffffffffffffffffff167fffffffffffffffffffffffffffffffffffffffffffffffffffffffffffffffff6040518363ffffffff1660e01b8152600401610d3e929190613fcf565b6020604051808303816000875af1158015610d5d573d6000803e3d6000fd5b505050506040513d601f19601f82011682018060405250810190610d819190614030565b50600360009054906101000a900473ffffffffffffffffffffffffffffffffffffffff1673ffffffffffffffffffffffffffffffffffffffff1663e8eda9df73c02aaa39b223fe8d0a0e5c4f27ead9083c756cc2843060006040518563ffffffff1660e01b8152600401610df894939291906140a6565b600060405180830381600087803b158015610e1257600080fd5b505af1158015610e26573d6000803e3d6000fd5b50505050600360009054906101000a900473ffffffffffffffffffffffffffffffffffffffff1673ffffffffffffffffffffffffffffffffffffffff1663e8eda9df732260fac5e5542a773aa44fbcfedf7c193bc2c599600f543060006040518563ffffffff1660e01b8152600401610ea294939291906140a6565b600060405180830381600087803b158015610ebc57600080fd5b505af1158015610ed0573d6000803e3d6000fd5b50505050610f126040518060400160405280601781526020017f6c696e652034323320696e64657820636f6e7472616374000000000000000000815250613845565b610f1a612a3d565b5050610f2a565b610f29612d7b565b5b50565b60105481565b600160009054906101000a900473ffffffffffffffffffffffffffffffffffffffff1673ffffffffffffffffffffffffffffffffffffffff166370a08231306040518263ffffffff1660e01b8152600401610f8e9190613c80565b602060405180830381865afa158015610fab573d6000803e3d6000fd5b505050506040513d601f19601f82011682018060405250810190610fcf9190613ed8565b600d819055506110136040518060400160405280601581526020017f726562616c616e63696e67206574682068656176790000000000000000000000815250613845565b61101b6126a2565b6000601054600e5461102d91906140eb565b90506001600d54111561166a5780600d54116112ab57600061107a73c02aaa39b223fe8d0a0e5c4f27ead9083c756cc2732260fac5e5542a773aa44fbcfedf7c193bc2c599600d54612295565b90506110b373c02aaa39b223fe8d0a0e5c4f27ead9083c756cc2732260fac5e5542a773aa44fbcfedf7c193bc2c599600d5484306130d5565b600260009054906101000a900473ffffffffffffffffffffffffffffffffffffffff1673ffffffffffffffffffffffffffffffffffffffff166370a08231306040518263ffffffff1660e01b815260040161110e9190613c80565b602060405180830381865afa15801561112b573d6000803e3d6000fd5b505050506040513d601f19601f8201168201806040525081019061114f9190613ed8565b600f81905550600360009054906101000a900473ffffffffffffffffffffffffffffffffffffffff1673ffffffffffffffffffffffffffffffffffffffff1663e8eda9df732260fac5e5542a773aa44fbcfedf7c193bc2c599600f543060006040518563ffffffff1660e01b81526004016111cd94939291906140a6565b600060405180830381600087803b1580156111e757600080fd5b505af11580156111fb573d6000803e3d6000fd5b5050505061123d6040518060400160405280601781526020017f6c696e652034333320696e64657820636f6e7472616374000000000000000000815250613845565b611245612a3d565b3073ffffffffffffffffffffffffffffffffffffffff16638cd99f546040518163ffffffff1660e01b8152600401600060405180830381600087803b15801561128d57600080fd5b505af11580156112a1573d6000803e3d6000fd5b5050505050611665565b6112e96040518060400160405280600881526020017f6c696e6520343431000000000000000000000000000000000000000000000000815250613845565b600081600d546112f991906140eb565b9050600060028261130a9190613f63565b83611315919061411f565b9050600061134c73c02aaa39b223fe8d0a0e5c4f27ead9083c756cc2732260fac5e5542a773aa44fbcfedf7c193bc2c59984612295565b905061138373c02aaa39b223fe8d0a0e5c4f27ead9083c756cc2732260fac5e5542a773aa44fbcfedf7c193bc2c5998484306130d5565b600160009054906101000a900473ffffffffffffffffffffffffffffffffffffffff1673ffffffffffffffffffffffffffffffffffffffff166370a08231306040518263ffffffff1660e01b81526004016113de9190613c80565b602060405180830381865afa1580156113fb573d6000803e3d6000fd5b505050506040513d601f19601f8201168201806040525081019061141f9190613ed8565b600d81905550600260009054906101000a900473ffffffffffffffffffffffffffffffffffffffff1673ffffffffffffffffffffffffffffffffffffffff166370a08231306040518263ffffffff1660e01b81526004016114809190613c80565b602060405180830381865afa15801561149d573d6000803e3d6000fd5b505050506040513d601f19601f820116820180604052508101906114c19190613ed8565b600f81905550600360009054906101000a900473ffffffffffffffffffffffffffffffffffffffff1673ffffffffffffffffffffffffffffffffffffffff1663e8eda9df73c02aaa39b223fe8d0a0e5c4f27ead9083c756cc2600d543060006040518563ffffffff1660e01b815260040161153f94939291906140a6565b600060405180830381600087803b15801561155957600080fd5b505af115801561156d573d6000803e3d6000fd5b50505050600360009054906101000a900473ffffffffffffffffffffffffffffffffffffffff1673ffffffffffffffffffffffffffffffffffffffff1663e8eda9df732260fac5e5542a773aa44fbcfedf7c193bc2c599600f543060006040518563ffffffff1660e01b81526004016115e994939291906140a6565b600060405180830381600087803b15801561160357600080fd5b505af1158015611617573d6000803e3d6000fd5b505050506116596040518060400160405280600881526020017f6c696e6520343639000000000000000000000000000000000000000000000000815250613845565b611661612a3d565b5050505b6119d9565b60006002826116799190613f63565b9050600360009054906101000a900473ffffffffffffffffffffffffffffffffffffffff1673ffffffffffffffffffffffffffffffffffffffff166369328dec73c02aaa39b223fe8d0a0e5c4f27ead9083c756cc283306040518463ffffffff1660e01b81526004016116ee93929190614153565b6020604051808303816000875af115801561170d573d6000803e3d6000fd5b505050506040513d601f19601f820116820180604052508101906117319190613ed8565b50600160009054906101000a900473ffffffffffffffffffffffffffffffffffffffff1673ffffffffffffffffffffffffffffffffffffffff166370a08231306040518263ffffffff1660e01b815260040161178d9190613c80565b602060405180830381865afa1580156117aa573d6000803e3d6000fd5b505050506040513d601f19601f820116820180604052508101906117ce9190613ed8565b600d81905550600061180b73c02aaa39b223fe8d0a0e5c4f27ead9083c756cc2732260fac5e5542a773aa44fbcfedf7c193bc2c599600d54612295565b905061184473c02aaa39b223fe8d0a0e5c4f27ead9083c756cc2732260fac5e5542a773aa44fbcfedf7c193bc2c599600d5484306130d5565b600260009054906101000a900473ffffffffffffffffffffffffffffffffffffffff1673ffffffffffffffffffffffffffffffffffffffff166370a08231306040518263ffffffff1660e01b815260040161189f9190613c80565b602060405180830381865afa1580156118bc573d6000803e3d6000fd5b505050506040513d601f19601f820116820180604052508101906118e09190613ed8565b600f81905550600360009054906101000a900473ffffffffffffffffffffffffffffffffffffffff1673ffffffffffffffffffffffffffffffffffffffff1663e8eda9df732260fac5e5542a773aa44fbcfedf7c193bc2c599600f543060006040518563ffffffff1660e01b815260040161195e94939291906140a6565b600060405180830381600087803b15801561197857600080fd5b505af115801561198c573d6000803e3d6000fd5b505050506119ce6040518060400160405280601781526020017f6c696e652034333320696e64657820636f6e7472616374000000000000000000815250613845565b6119d6612a3d565b50505b50565b60146020528060005260406000206000915090505481565b600080600660009054906101000a900473ffffffffffffffffffffffffffffffffffffffff1673ffffffffffffffffffffffffffffffffffffffff1663feaf968c6040518163ffffffff1660e01b815260040160a060405180830381865afa158015611a64573d6000803e3d6000fd5b505050506040513d601f19601f82011682018060405250810190611a889190614202565b5050509150508091505090565b600160009054906101000a900473ffffffffffffffffffffffffffffffffffffffff1673ffffffffffffffffffffffffffffffffffffffff1663a9059cbb33836040518363ffffffff1660e01b8152600401611af2929190613e9a565b6020604051808303816000875af1158015611b11573d6000803e3d6000fd5b505050506040513d601f19601f82011682018060405250810190611b359190614030565b5050565b60008060009054906101000a900473ffffffffffffffffffffffffffffffffffffffff1673ffffffffffffffffffffffffffffffffffffffff166370a08231336040518263ffffffff1660e01b8152600401611b959190613c80565b602060405180830381865afa158015611bb2573d6000803e3d6000fd5b505050506040513d601f19601f82011682018060405250810190611bd69190613ed8565b905080821115611c1b576040517f08c379a0000000000000000000000000000000000000000000000000000000008152600401611c12906142ef565b60405180910390fd5b60008054906101000a900473ffffffffffffffffffffffffffffffffffffffff1673ffffffffffffffffffffffffffffffffffffffff1663095ea7b330846040518363ffffffff1660e01b8152600401611c76929190613e9a565b6020604051808303816000875af1158015611c95573d6000803e3d6000fd5b505050506040513d601f19601f82011682018060405250810190611cb99190614030565b506000611cc5836134df565b90506000600282611cd69190613f63565b9050611d176040518060400160405280601381526020017f48616c66446966666572656e6365203d20257300000000000000000000000000815250826138de565b6000611d216119f4565b6305f5e10083611d31919061430f565b611d3b9190613f63565b9050611d7c6040518060400160405280601781526020017f7762746348616c66446966666572656e6365203d202573000000000000000000815250826138de565b600360009054906101000a900473ffffffffffffffffffffffffffffffffffffffff1673ffffffffffffffffffffffffffffffffffffffff166369328dec732260fac5e5542a773aa44fbcfedf7c193bc2c59983306040518463ffffffff1660e01b8152600401611def93929190614153565b6020604051808303816000875af1158015611e0e573d6000803e3d6000fd5b505050506040513d601f19601f82011682018060405250810190611e329190613ed8565b50611e5460405180606001604052806024815260200161472b60249139613845565b6000611e89732260fac5e5542a773aa44fbcfedf7c193bc2c59973c02aaa39b223fe8d0a0e5c4f27ead9083c756cc284612295565b9050611ec0732260fac5e5542a773aa44fbcfedf7c193bc2c59973c02aaa39b223fe8d0a0e5c4f27ead9083c756cc28484306130d5565b611efe6040518060400160405280600e81526020017f7377617020636f6d706c65746564000000000000000000000000000000000000815250613845565b600360009054906101000a900473ffffffffffffffffffffffffffffffffffffffff1673ffffffffffffffffffffffffffffffffffffffff166369328dec73c02aaa39b223fe8d0a0e5c4f27ead9083c756cc2600d5486611f5f91906140eb565b306040518463ffffffff1660e01b8152600401611f7e93929190614153565b6020604051808303816000875af1158015611f9d573d6000803e3d6000fd5b505050506040513d601f19601f82011682018060405250810190611fc19190613ed8565b50611fe360405180606001604052806024815260200161478160249139613845565b611fec3361397a565b61202a6040518060400160405280601481526020017f617474656d7074696e67206275726e2066726f6d000000000000000000000000815250613845565b60008054906101000a900473ffffffffffffffffffffffffffffffffffffffff1673ffffffffffffffffffffffffffffffffffffffff166379cc679033886040518363ffffffff1660e01b8152600401612085929190613e9a565b600060405180830381600087803b15801561209f57600080fd5b505af11580156120b3573d6000803e3d6000fd5b5050505060008054906101000a900473ffffffffffffffffffffffffffffffffffffffff1673ffffffffffffffffffffffffffffffffffffffff166342966c68876040518263ffffffff1660e01b81526004016121109190613a55565b600060405180830381600087803b15801561212a57600080fd5b505af115801561213e573d6000803e3d6000fd5b505050506121806040518060400160405280601281526020017f696e64657820746f6b656e73206275726e740000000000000000000000000000815250613845565b6000838261218e919061411f565b905061219981611a95565b6121d76040518060400160405280601d81526020017f77657468207472616e73666572726564206261636b20746f2075736572000000815250613845565b50505050505050565b6000600160009054906101000a900473ffffffffffffffffffffffffffffffffffffffff1673ffffffffffffffffffffffffffffffffffffffff166370a08231306040518263ffffffff1660e01b815260040161223d9190613c80565b602060405180830381865afa15801561225a573d6000803e3d6000fd5b505050506040513d601f19601f8201168201806040525081019061227e9190613ed8565b905090565b60115481565b600c5481565b60125481565b6000606073c02aaa39b223fe8d0a0e5c4f27ead9083c756cc273ffffffffffffffffffffffffffffffffffffffff168573ffffffffffffffffffffffffffffffffffffffff161480612326575073c02aaa39b223fe8d0a0e5c4f27ead9083c756cc273ffffffffffffffffffffffffffffffffffffffff168473ffffffffffffffffffffffffffffffffffffffff16145b1561241a57600267ffffffffffffffff81111561234657612345614351565b5b6040519080825280602002602001820160405280156123745781602001602082028036833780820191505090505b509050848160008151811061238c5761238b614380565b5b602002602001019073ffffffffffffffffffffffffffffffffffffffff16908173ffffffffffffffffffffffffffffffffffffffff168152505083816001815181106123db576123da614380565b5b602002602001019073ffffffffffffffffffffffffffffffffffffffff16908173ffffffffffffffffffffffffffffffffffffffff1681525050612568565b600367ffffffffffffffff81111561243557612434614351565b5b6040519080825280602002602001820160405280156124635781602001602082028036833780820191505090505b509050848160008151811061247b5761247a614380565b5b602002602001019073ffffffffffffffffffffffffffffffffffffffff16908173ffffffffffffffffffffffffffffffffffffffff168152505073c02aaa39b223fe8d0a0e5c4f27ead9083c756cc2816001815181106124de576124dd614380565b5b602002602001019073ffffffffffffffffffffffffffffffffffffffff16908173ffffffffffffffffffffffffffffffffffffffff1681525050838160028151811061252d5761252c614380565b5b602002602001019073ffffffffffffffffffffffffffffffffffffffff16908173ffffffffffffffffffffffffffffffffffffffff16815250505b6000737a250d5630b4cf539739df2c5dacb4c659f2488d73ffffffffffffffffffffffffffffffffffffffff1663d06ca61f85846040518363ffffffff1660e01b81526004016125b992919061446d565b600060405180830381865afa1580156125d6573d6000803e3d6000fd5b505050506040513d6000823e3d601f19601f820116820180604052508101906125ff91906145c7565b9050806001835161261091906140eb565b8151811061262157612620614380565b5b6020026020010151925050509392505050565b60136020528060005260406000206000915090505481565b600f5481565b600160009054906101000a900473ffffffffffffffffffffffffffffffffffffffff1681565b60008054906101000a900473ffffffffffffffffffffffffffffffffffffffff1681565b60165481565b6305f5e1006126af6119f4565b6011546126bc919061430f565b6126c69190613f63565b601081905550565b600b5481565b600080600760009054906101000a900473ffffffffffffffffffffffffffffffffffffffff1673ffffffffffffffffffffffffffffffffffffffff1663feaf968c6040518163ffffffff1660e01b815260040160a060405180830381865afa158015612744573d6000803e3d6000fd5b505050506040513d601f19601f820116820180604052508101906127689190614202565b5050509150508091505090565b60156020528060005260406000206000915054906101000a900473ffffffffffffffffffffffffffffffffffffffff1681565b6000479050600160009054906101000a900473ffffffffffffffffffffffffffffffffffffffff1673ffffffffffffffffffffffffffffffffffffffff1663d0e30db0826040518263ffffffff1660e01b81526004016000604051808303818588803b15801561281757600080fd5b505af115801561282b573d6000803e3d6000fd5b50505050506000600160009054906101000a900473ffffffffffffffffffffffffffffffffffffffff1673ffffffffffffffffffffffffffffffffffffffff166370a08231306040518263ffffffff1660e01b815260040161288d9190613c80565b602060405180830381865afa1580156128aa573d6000803e3d6000fd5b505050506040513d601f19601f820116820180604052508101906128ce9190613ed8565b9050600160009054906101000a900473ffffffffffffffffffffffffffffffffffffffff1673ffffffffffffffffffffffffffffffffffffffff1663a9059cbb30836040518363ffffffff1660e01b815260040161292d929190613e9a565b6020604051808303816000875af115801561294c573d6000803e3d6000fd5b505050506040513d601f19601f820116820180604052508101906129709190614030565b50600160009054906101000a900473ffffffffffffffffffffffffffffffffffffffff1673ffffffffffffffffffffffffffffffffffffffff166370a08231306040518263ffffffff1660e01b81526004016129cc9190613c80565b602060405180830381865afa1580156129e9573d6000803e3d6000fd5b505050506040513d601f19601f82011682018060405250810190612a0d9190613ed8565b600d819055505050565b600260009054906101000a900473ffffffffffffffffffffffffffffffffffffffff1681565b600460009054906101000a900473ffffffffffffffffffffffffffffffffffffffff1673ffffffffffffffffffffffffffffffffffffffff166370a08231306040518263ffffffff1660e01b8152600401612a989190613c80565b602060405180830381865afa158015612ab5573d6000803e3d6000fd5b505050506040513d601f19601f82011682018060405250810190612ad99190613ed8565b600e81905550600560009054906101000a900473ffffffffffffffffffffffffffffffffffffffff1673ffffffffffffffffffffffffffffffffffffffff166370a08231306040518263ffffffff1660e01b8152600401612b3a9190613c80565b602060405180830381865afa158015612b57573d6000803e3d6000fd5b505050506040513d601f19601f82011682018060405250810190612b7b9190613ed8565b601181905550600160009054906101000a900473ffffffffffffffffffffffffffffffffffffffff1673ffffffffffffffffffffffffffffffffffffffff166370a08231306040518263ffffffff1660e01b8152600401612bdc9190613c80565b602060405180830381865afa158015612bf9573d6000803e3d6000fd5b505050506040513d601f19601f82011682018060405250810190612c1d9190613ed8565b600d81905550612c2b6126a2565b612c6c6040518060400160405280601481526020017f77657468206f6e20636f6e74726163743a202573000000000000000000000000815250600d546138de565b612cad6040518060400160405280601581526020017f6157657468206f6e20636f6e74726163743a2025730000000000000000000000815250600e546138de565b612cee6040518060400160405280601581526020017f6157627463206f6e20636f6e74726163743a20257300000000000000000000008152506011546138de565b612d2f6040518060400160405280601c81526020017f6157627463206f6e20636f6e74726163742076616c7565203a202573000000008152506010546138de565b565b3373ffffffffffffffffffffffffffffffffffffffff166108fc829081150290604051600060405180830381858888f19350505050158015612d77573d6000803e3d6000fd5b5050565b612db96040518060400160405280601a81526020017f726562616c616e63696e67206578697374696e67207661756c74000000000000815250613845565b6000600e54601054612dcb919061411f565b9050601054816064612ddd919061430f565b612de79190613f63565b60168190555060d26016541115612e4357612e366040518060400160405280601381526020017f696e646578206973206574682068656176792100000000000000000000000000815250613845565b612e3e610f33565b612e8d565b60be60165410612e8c57612e8b6040518060400160405280601581526020017f6e6f20726562616c616e63652072657175697265640000000000000000000000815250613845565b5b5b50565b60095481565b600560009054906101000a900473ffffffffffffffffffffffffffffffffffffffff1681565b612ec4612ef8565b50506305f5e100612ed36126d4565b600c54612ee0919061430f565b612eea9190613f63565b600b81905550565b600e5481565b6000806000612f056121e0565b9050600560009054906101000a900473ffffffffffffffffffffffffffffffffffffffff1673ffffffffffffffffffffffffffffffffffffffff166370a08231306040518263ffffffff1660e01b8152600401612f629190613c80565b602060405180830381865afa158015612f7f573d6000803e3d6000fd5b505050506040513d601f19601f82011682018060405250810190612fa39190613ed8565b601181905550612fb16126a2565b600460009054906101000a900473ffffffffffffffffffffffffffffffffffffffff1673ffffffffffffffffffffffffffffffffffffffff166370a08231306040518263ffffffff1660e01b815260040161300c9190613c80565b602060405180830381865afa158015613029573d6000803e3d6000fd5b505050506040513d601f19601f8201168201806040525081019061304d9190613ed8565b600e8190555061307760405180606001604052806032815260200161474f60329139600e546138de565b6000601054600e54613089919061411f565b90508181613097919061411f565b93506305f5e1006130a66126d4565b600c546130b3919061430f565b6130bd9190613f63565b600b8190555083819350935050509091565b600d5481565b8473ffffffffffffffffffffffffffffffffffffffff1663095ea7b3737a250d5630b4cf539739df2c5dacb4c659f2488d856040518363ffffffff1660e01b8152600401613124929190613e9a565b6020604051808303816000875af1158015613143573d6000803e3d6000fd5b505050506040513d601f19601f820116820180604052508101906131679190614030565b50606073c02aaa39b223fe8d0a0e5c4f27ead9083c756cc273ffffffffffffffffffffffffffffffffffffffff168673ffffffffffffffffffffffffffffffffffffffff1614806131f7575073c02aaa39b223fe8d0a0e5c4f27ead9083c756cc273ffffffffffffffffffffffffffffffffffffffff168573ffffffffffffffffffffffffffffffffffffffff16145b156132eb57600267ffffffffffffffff81111561321757613216614351565b5b6040519080825280602002602001820160405280156132455781602001602082028036833780820191505090505b509050858160008151811061325d5761325c614380565b5b602002602001019073ffffffffffffffffffffffffffffffffffffffff16908173ffffffffffffffffffffffffffffffffffffffff168152505084816001815181106132ac576132ab614380565b5b602002602001019073ffffffffffffffffffffffffffffffffffffffff16908173ffffffffffffffffffffffffffffffffffffffff1681525050613439565b600367ffffffffffffffff81111561330657613305614351565b5b6040519080825280602002602001820160405280156133345781602001602082028036833780820191505090505b509050858160008151811061334c5761334b614380565b5b602002602001019073ffffffffffffffffffffffffffffffffffffffff16908173ffffffffffffffffffffffffffffffffffffffff168152505073c02aaa39b223fe8d0a0e5c4f27ead9083c756cc2816001815181106133af576133ae614380565b5b602002602001019073ffffffffffffffffffffffffffffffffffffffff16908173ffffffffffffffffffffffffffffffffffffffff168152505084816002815181106133fe576133fd614380565b5b602002602001019073ffffffffffffffffffffffffffffffffffffffff16908173ffffffffffffffffffffffffffffffffffffffff16815250505b737a250d5630b4cf539739df2c5dacb4c659f2488d73ffffffffffffffffffffffffffffffffffffffff166338ed173985858486426040518663ffffffff1660e01b815260040161348e959493929190614610565b6000604051808303816000875af11580156134ad573d6000803e3d6000fd5b505050506040513d6000823e3d601f19601f820116820180604052508101906134d691906145c7565b50505050505050565b60006134e9612ebc565b60008060009054906101000a900473ffffffffffffffffffffffffffffffffffffffff1673ffffffffffffffffffffffffffffffffffffffff166318160ddd6040518163ffffffff1660e01b8152600401602060405180830381865afa158015613557573d6000803e3d6000fd5b505050506040513d601f19601f8201168201806040525081019061357b9190613ed8565b90508083600c5461358c919061430f565b6135969190613f63565b601281905550601254915050919050565b600360009054906101000a900473ffffffffffffffffffffffffffffffffffffffff1681565b600360009054906101000a900473ffffffffffffffffffffffffffffffffffffffff1673ffffffffffffffffffffffffffffffffffffffff1663e8eda9df83833060006040518563ffffffff1660e01b815260040161362f94939291906140a6565b600060405180830381600087803b15801561364957600080fd5b505af115801561365d573d6000803e3d6000fd5b505050505050565b600460009054906101000a900473ffffffffffffffffffffffffffffffffffffffff1681565b600a5481565b60008060008054906101000a900473ffffffffffffffffffffffffffffffffffffffff1673ffffffffffffffffffffffffffffffffffffffff166318160ddd6040518163ffffffff1660e01b8152600401602060405180830381865afa1580156136ff573d6000803e3d6000fd5b505050506040513d601f19601f820116820180604052508101906137239190613ed8565b036137645781600c600082825461373a919061411f565b925050819055506137496126d4565b600c54613756919061430f565b600b81905550819050613840565b60008060009054906101000a900473ffffffffffffffffffffffffffffffffffffffff1673ffffffffffffffffffffffffffffffffffffffff166318160ddd6040518163ffffffff1660e01b8152600401602060405180830381865afa1580156137d2573d6000803e3d6000fd5b505050506040513d601f19601f820116820180604052508101906137f69190613ed8565b90506000613802612ef8565b5090506000848261381391906140eb565b90506000818685613824919061430f565b61382e9190613f63565b9050613838612ebc565b809450505050505b919050565b6138db8160405160240161385991906146d8565b6040516020818303038152906040527f41304fac000000000000000000000000000000000000000000000000000000007bffffffffffffffffffffffffffffffffffffffffffffffffffffffff19166020820180517bffffffffffffffffffffffffffffffffffffffffffffffffffffffff8381831617835250505050613a13565b50565b61397682826040516024016138f49291906146fa565b6040516020818303038152906040527fb60e72cc000000000000000000000000000000000000000000000000000000007bffffffffffffffffffffffffffffffffffffffffffffffffffffffff19166020820180517bffffffffffffffffffffffffffffffffffffffffffffffffffffffff8381831617835250505050613a13565b5050565b613a108160405160240161398e9190613c80565b6040516020818303038152906040527f2c2ecbc2000000000000000000000000000000000000000000000000000000007bffffffffffffffffffffffffffffffffffffffffffffffffffffffff19166020820180517bffffffffffffffffffffffffffffffffffffffffffffffffffffffff8381831617835250505050613a13565b50565b60008151905060006a636f6e736f6c652e6c6f679050602083016000808483855afa5050505050565b6000819050919050565b613a4f81613a3c565b82525050565b6000602082019050613a6a6000830184613a46565b92915050565b6000604051905090565b600080fd5b600080fd5b600073ffffffffffffffffffffffffffffffffffffffff82169050919050565b6000613aaf82613a84565b9050919050565b613abf81613aa4565b8114613aca57600080fd5b50565b600081359050613adc81613ab6565b92915050565b600060208284031215613af857613af7613a7a565b5b6000613b0684828501613acd565b91505092915050565b613b1881613a3c565b8114613b2357600080fd5b50565b600081359050613b3581613b0f565b92915050565b600060208284031215613b5157613b50613a7a565b5b6000613b5f84828501613b26565b91505092915050565b600080600060608486031215613b8157613b80613a7a565b5b6000613b8f86828701613acd565b9350506020613ba086828701613acd565b9250506040613bb186828701613b26565b9150509250925092565b6000819050919050565b6000613be0613bdb613bd684613a84565b613bbb565b613a84565b9050919050565b6000613bf282613bc5565b9050919050565b6000613c0482613be7565b9050919050565b613c1481613bf9565b82525050565b6000602082019050613c2f6000830184613c0b565b92915050565b6000613c4082613be7565b9050919050565b613c5081613c35565b82525050565b6000602082019050613c6b6000830184613c47565b92915050565b613c7a81613aa4565b82525050565b6000602082019050613c956000830184613c71565b92915050565b6000613ca682613be7565b9050919050565b613cb681613c9b565b82525050565b6000602082019050613cd16000830184613cad565b92915050565b6000604082019050613cec6000830185613a46565b613cf96020830184613a46565b9392505050565b600080600080600060a08688031215613d1c57613d1b613a7a565b5b6000613d2a88828901613acd565b9550506020613d3b88828901613acd565b9450506040613d4c88828901613b26565b9350506060613d5d88828901613b26565b9250506080613d6e88828901613acd565b9150509295509295909350565b6000613d8682613be7565b9050919050565b613d9681613d7b565b82525050565b6000602082019050613db16000830184613d8d565b92915050565b60008060408385031215613dce57613dcd613a7a565b5b6000613ddc85828601613acd565b9250506020613ded85828601613b26565b9150509250929050565b600082825260208201905092915050565b7f506c6561736520696e63726561736520746865206d696e696d756d20636f6e7460008201527f7269627574696f6e20746f20302e312045746865722100000000000000000000602082015250565b6000613e64603683613df7565b9150613e6f82613e08565b604082019050919050565b60006020820190508181036000830152613e9381613e57565b9050919050565b6000604082019050613eaf6000830185613c71565b613ebc6020830184613a46565b9392505050565b600081519050613ed281613b0f565b92915050565b600060208284031215613eee57613eed613a7a565b5b6000613efc84828501613ec3565b91505092915050565b7f4e487b7100000000000000000000000000000000000000000000000000000000600052601260045260246000fd5b7f4e487b7100000000000000000000000000000000000000000000000000000000600052601160045260246000fd5b6000613f6e82613a3c565b9150613f7983613a3c565b925082613f8957613f88613f05565b5b828204905092915050565b6000819050919050565b6000613fb9613fb4613faf84613f94565b613bbb565b613a3c565b9050919050565b613fc981613f9e565b82525050565b6000604082019050613fe46000830185613c71565b613ff16020830184613fc0565b9392505050565b60008115159050919050565b61400d81613ff8565b811461401857600080fd5b50565b60008151905061402a81614004565b92915050565b60006020828403121561404657614045613a7a565b5b60006140548482850161401b565b91505092915050565b6000819050919050565b600061ffff82169050919050565b600061409061408b6140868461405d565b613bbb565b614067565b9050919050565b6140a081614075565b82525050565b60006080820190506140bb6000830187613c71565b6140c86020830186613a46565b6140d56040830185613c71565b6140e26060830184614097565b95945050505050565b60006140f682613a3c565b915061410183613a3c565b925082820390508181111561411957614118613f34565b5b92915050565b600061412a82613a3c565b915061413583613a3c565b925082820190508082111561414d5761414c613f34565b5b92915050565b60006060820190506141686000830186613c71565b6141756020830185613a46565b6141826040830184613c71565b949350505050565b600069ffffffffffffffffffff82169050919050565b6141a98161418a565b81146141b457600080fd5b50565b6000815190506141c6816141a0565b92915050565b6000819050919050565b6141df816141cc565b81146141ea57600080fd5b50565b6000815190506141fc816141d6565b92915050565b600080600080600060a0868803121561421e5761421d613a7a565b5b600061422c888289016141b7565b955050602061423d888289016141ed565b945050604061424e88828901613ec3565b935050606061425f88828901613ec3565b9250506080614270888289016141b7565b9150509295509295909350565b7f63616e6e6f742072656465656d206d6f726520746f6b656e73207468616e207960008201527f6f75206f776e2100000000000000000000000000000000000000000000000000602082015250565b60006142d9602783613df7565b91506142e48261427d565b604082019050919050565b60006020820190508181036000830152614308816142cc565b9050919050565b600061431a82613a3c565b915061432583613a3c565b925082820261433381613a3c565b9150828204841483151761434a57614349613f34565b5b5092915050565b7f4e487b7100000000000000000000000000000000000000000000000000000000600052604160045260246000fd5b7f4e487b7100000000000000000000000000000000000000000000000000000000600052603260045260246000fd5b600081519050919050565b600082825260208201905092915050565b6000819050602082019050919050565b6143e481613aa4565b82525050565b60006143f683836143db565b60208301905092915050565b6000602082019050919050565b600061441a826143af565b61442481856143ba565b935061442f836143cb565b8060005b8381101561446057815161444788826143ea565b975061445283614402565b925050600181019050614433565b5085935050505092915050565b60006040820190506144826000830185613a46565b8181036020830152614494818461440f565b90509392505050565b600080fd5b6000601f19601f8301169050919050565b6144bc826144a2565b810181811067ffffffffffffffff821117156144db576144da614351565b5b80604052505050565b60006144ee613a70565b90506144fa82826144b3565b919050565b600067ffffffffffffffff82111561451a57614519614351565b5b602082029050602081019050919050565b600080fd5b600061454361453e846144ff565b6144e4565b905080838252602082019050602084028301858111156145665761456561452b565b5b835b8181101561458f578061457b8882613ec3565b845260208401935050602081019050614568565b5050509392505050565b600082601f8301126145ae576145ad61449d565b5b81516145be848260208601614530565b91505092915050565b6000602082840312156145dd576145dc613a7a565b5b600082015167ffffffffffffffff8111156145fb576145fa613a7f565b5b61460784828501614599565b91505092915050565b600060a0820190506146256000830188613a46565b6146326020830187613a46565b8181036040830152614644818661440f565b90506146536060830185613c71565b6146606080830184613a46565b9695505050505050565b600081519050919050565b60005b83811015614693578082015181840152602081019050614678565b60008484015250505050565b60006146aa8261466a565b6146b48185613df7565b93506146c4818560208601614675565b6146cd816144a2565b840191505092915050565b600060208201905081810360008301526146f2818461469f565b905092915050565b60006040820190508181036000830152614714818561469f565b90506147236020830184613a46565b939250505056fe57425443207769746864726177616c2066726f6d206161766520636f6d706c65746564216177657468206f6e20636f6e7472616374202866726f6d202763616c63756c617465496e64657856616c756527293a20257357455448207769746864726177616c2066726f6d206161766520636f6d706c6574656421a2646970667358221220ccbf93a7e528f4bf8e0e7a547b32c2938ed340632c07d3fba1c974cea9816d5864736f6c63430008110033",
  "linkReferences": {},
  "deployedLinkReferences": {}
}