{
  "_format": "hh-sol-artifact-1",
  "contractName": "IndexContract",
  "sourceName": "contracts/IndexContract.sol",
  "abi": [
    {
      "inputs": [
        {
          "internalType": "address",
          "name": "_tokenContract",
          "type": "address"
        },
        {
          "internalType": "address[]",
          "name": "vaultTokens",
          "type": "address[]"
        },
        {
          "internalType": "address[]",
          "name": "tokens",
          "type": "address[]"
        }
      ],
      "stateMutability": "nonpayable",
      "type": "constructor"
    },
    {
      "anonymous": false,
      "inputs": [
        {
          "indexed": false,
          "internalType": "uint256",
          "name": "amount",
          "type": "uint256"
        }
      ],
      "name": "liquidtyRemoved",
      "type": "event"
    },
    {
      "stateMutability": "payable",
      "type": "fallback"
    },
    {
      "inputs": [
        {
          "internalType": "address",
          "name": "",
          "type": "address"
        }
      ],
      "name": "VaultTokenToToken",
      "outputs": [
        {
          "internalType": "address",
          "name": "",
          "type": "address"
        }
      ],
      "stateMutability": "view",
      "type": "function"
    },
    {
      "inputs": [],
      "name": "aWBtcContract",
      "outputs": [
        {
          "internalType": "contract IAToken",
          "name": "",
          "type": "address"
        }
      ],
      "stateMutability": "view",
      "type": "function"
    },
    {
      "inputs": [],
      "name": "aWbtcOnContract",
      "outputs": [
        {
          "internalType": "uint256",
          "name": "",
          "type": "uint256"
        }
      ],
      "stateMutability": "view",
      "type": "function"
    },
    {
      "inputs": [],
      "name": "aWbtcOnContractValue",
      "outputs": [
        {
          "internalType": "uint256",
          "name": "",
          "type": "uint256"
        }
      ],
      "stateMutability": "view",
      "type": "function"
    },
    {
      "inputs": [],
      "name": "aWethContract",
      "outputs": [
        {
          "internalType": "contract IAToken",
          "name": "",
          "type": "address"
        }
      ],
      "stateMutability": "view",
      "type": "function"
    },
    {
      "inputs": [],
      "name": "aWethOnContract",
      "outputs": [
        {
          "internalType": "uint256",
          "name": "",
          "type": "uint256"
        }
      ],
      "stateMutability": "view",
      "type": "function"
    },
    {
      "inputs": [],
      "name": "aaveV2LendingPool",
      "outputs": [
        {
          "internalType": "contract ILendingPool",
          "name": "",
          "type": "address"
        }
      ],
      "stateMutability": "view",
      "type": "function"
    },
    {
      "inputs": [
        {
          "internalType": "address",
          "name": "",
          "type": "address"
        }
      ],
      "name": "addressToAmountFunded",
      "outputs": [
        {
          "internalType": "uint256",
          "name": "",
          "type": "uint256"
        }
      ],
      "stateMutability": "view",
      "type": "function"
    },
    {
      "inputs": [],
      "name": "balanceFund",
      "outputs": [],
      "stateMutability": "nonpayable",
      "type": "function"
    },
    {
      "inputs": [
        {
          "internalType": "uint256",
          "name": "amount",
          "type": "uint256"
        }
      ],
      "name": "burnIndexTokens",
      "outputs": [],
      "stateMutability": "nonpayable",
      "type": "function"
    },
    {
      "inputs": [
        {
          "internalType": "uint256",
          "name": "indexTokenAmount",
          "type": "uint256"
        }
      ],
      "name": "calculateIndexTokensValue",
      "outputs": [
        {
          "internalType": "uint256",
          "name": "indexTokenAmountValue",
          "type": "uint256"
        }
      ],
      "stateMutability": "nonpayable",
      "type": "function"
    },
    {
      "inputs": [],
      "name": "calculateIndexValue",
      "outputs": [
        {
          "internalType": "uint256",
          "name": "valueOfIndex",
          "type": "uint256"
        },
        {
          "internalType": "uint256",
          "name": "valueOfVaultPositions",
          "type": "uint256"
        }
      ],
      "stateMutability": "nonpayable",
      "type": "function"
    },
    {
      "inputs": [],
      "name": "convertToWeth",
      "outputs": [],
      "stateMutability": "nonpayable",
      "type": "function"
    },
    {
      "inputs": [
        {
          "internalType": "address",
          "name": "token",
          "type": "address"
        },
        {
          "internalType": "uint256",
          "name": "amount",
          "type": "uint256"
        }
      ],
      "name": "depositToAave",
      "outputs": [],
      "stateMutability": "nonpayable",
      "type": "function"
    },
    {
      "inputs": [
        {
          "internalType": "address",
          "name": "_tokenIn",
          "type": "address"
        },
        {
          "internalType": "address",
          "name": "_tokenOut",
          "type": "address"
        },
        {
          "internalType": "uint256",
          "name": "_amountIn",
          "type": "uint256"
        }
      ],
      "name": "getAmountOutMin",
      "outputs": [
        {
          "internalType": "uint256",
          "name": "",
          "type": "uint256"
        }
      ],
      "stateMutability": "view",
      "type": "function"
    },
    {
      "inputs": [],
      "name": "getWbtcPrice",
      "outputs": [
        {
          "internalType": "uint256",
          "name": "outPrice",
          "type": "uint256"
        }
      ],
      "stateMutability": "view",
      "type": "function"
    },
    {
      "inputs": [],
      "name": "indexValue",
      "outputs": [
        {
          "internalType": "uint256",
          "name": "",
          "type": "uint256"
        }
      ],
      "stateMutability": "view",
      "type": "function"
    },
    {
      "inputs": [],
      "name": "inverseIndexProportionBTCx100",
      "outputs": [
        {
          "internalType": "uint256",
          "name": "",
          "type": "uint256"
        }
      ],
      "stateMutability": "view",
      "type": "function"
    },
    {
      "inputs": [],
      "name": "rebalanceEthHeavy",
      "outputs": [],
      "stateMutability": "nonpayable",
      "type": "function"
    },
    {
      "inputs": [],
      "name": "rebalanceExistingVault",
      "outputs": [],
      "stateMutability": "nonpayable",
      "type": "function"
    },
    {
      "inputs": [],
      "name": "receive_funds",
      "outputs": [],
      "stateMutability": "payable",
      "type": "function"
    },
    {
      "inputs": [
        {
          "internalType": "uint256",
          "name": "amount",
          "type": "uint256"
        }
      ],
      "name": "returnEth",
      "outputs": [],
      "stateMutability": "nonpayable",
      "type": "function"
    },
    {
      "inputs": [
        {
          "internalType": "address",
          "name": "_tokenIn",
          "type": "address"
        },
        {
          "internalType": "address",
          "name": "_tokenOut",
          "type": "address"
        },
        {
          "internalType": "uint256",
          "name": "_amountIn",
          "type": "uint256"
        },
        {
          "internalType": "uint256",
          "name": "_amountOutMin",
          "type": "uint256"
        },
        {
          "internalType": "address",
          "name": "_to",
          "type": "address"
        }
      ],
      "name": "swap",
      "outputs": [],
      "stateMutability": "nonpayable",
      "type": "function"
    },
    {
      "inputs": [],
      "name": "tokenContract",
      "outputs": [
        {
          "internalType": "contract IIndexToken",
          "name": "",
          "type": "address"
        }
      ],
      "stateMutability": "view",
      "type": "function"
    },
    {
      "inputs": [
        {
          "internalType": "address",
          "name": "",
          "type": "address"
        }
      ],
      "name": "tokenIndexValues",
      "outputs": [
        {
          "internalType": "uint256",
          "name": "",
          "type": "uint256"
        }
      ],
      "stateMutability": "view",
      "type": "function"
    },
    {
      "inputs": [
        {
          "internalType": "uint256",
          "name": "Amount",
          "type": "uint256"
        }
      ],
      "name": "unwrapEth",
      "outputs": [],
      "stateMutability": "payable",
      "type": "function"
    },
    {
      "inputs": [],
      "name": "updateAwbtcOnContractValue",
      "outputs": [],
      "stateMutability": "nonpayable",
      "type": "function"
    },
    {
      "inputs": [],
      "name": "updateHoldings",
      "outputs": [],
      "stateMutability": "nonpayable",
      "type": "function"
    },
    {
      "inputs": [],
      "name": "wbtcContract",
      "outputs": [
        {
          "internalType": "contract IWETH",
          "name": "",
          "type": "address"
        }
      ],
      "stateMutability": "view",
      "type": "function"
    },
    {
      "inputs": [],
      "name": "wbtcOnContract",
      "outputs": [
        {
          "internalType": "uint256",
          "name": "",
          "type": "uint256"
        }
      ],
      "stateMutability": "view",
      "type": "function"
    },
    {
      "inputs": [],
      "name": "wethBalance",
      "outputs": [
        {
          "internalType": "uint256",
          "name": "_balance",
          "type": "uint256"
        }
      ],
      "stateMutability": "view",
      "type": "function"
    },
    {
      "inputs": [],
      "name": "wethContract",
      "outputs": [
        {
          "internalType": "contract IWETH",
          "name": "",
          "type": "address"
        }
      ],
      "stateMutability": "view",
      "type": "function"
    },
    {
      "inputs": [],
      "name": "wethOnContract",
      "outputs": [
        {
          "internalType": "uint256",
          "name": "",
          "type": "uint256"
        }
      ],
      "stateMutability": "view",
      "type": "function"
    },
    {
      "inputs": [
        {
          "internalType": "uint256",
          "name": "tokenAmount",
          "type": "uint256"
        }
      ],
      "name": "withdraw",
      "outputs": [],
      "stateMutability": "nonpayable",
      "type": "function"
    },
    {
      "inputs": [],
      "name": "withdrawalTokenValue",
      "outputs": [
        {
          "internalType": "uint256",
          "name": "",
          "type": "uint256"
        }
      ],
      "stateMutability": "view",
      "type": "function"
    },
    {
      "stateMutability": "payable",
      "type": "receive"
    }
  ],
  "bytecode": "0x60806040523480156200001157600080fd5b50604051620047d2380380620047d283398181016040528101906200003791906200051a565b60005b6007805490508160ff161015620000e457828160ff1681518110620000645762000063620005b4565b5b602002602001015160078260ff1681548110620000865762000085620005b4565b5b9060005260206000200160006101000a81548173ffffffffffffffffffffffffffffffffffffffff021916908373ffffffffffffffffffffffffffffffffffffffff1602179055508080620000db906200061f565b9150506200003a565b50826000806101000a81548173ffffffffffffffffffffffffffffffffffffffff021916908373ffffffffffffffffffffffffffffffffffffffff16021790555073c02aaa39b223fe8d0a0e5c4f27ead9083c756cc2600160006101000a81548173ffffffffffffffffffffffffffffffffffffffff021916908373ffffffffffffffffffffffffffffffffffffffff160217905550732260fac5e5542a773aa44fbcfedf7c193bc2c599600260006101000a81548173ffffffffffffffffffffffffffffffffffffffff021916908373ffffffffffffffffffffffffffffffffffffffff160217905550739ff58f4ffb29fa2266ab25e75e2a8b3503311656600560006101000a81548173ffffffffffffffffffffffffffffffffffffffff021916908373ffffffffffffffffffffffffffffffffffffffff16021790555073030ba81f1c18d280636f32af80b9aad02cf0854e600460006101000a81548173ffffffffffffffffffffffffffffffffffffffff021916908373ffffffffffffffffffffffffffffffffffffffff160217905550737d2768de32b0b80b7a3454c06bdac94a69ddc7a9600360006101000a81548173ffffffffffffffffffffffffffffffffffffffff021916908373ffffffffffffffffffffffffffffffffffffffff16021790555073deb288f737066589598e9214e782fa5a8ed689e8600660006101000a81548173ffffffffffffffffffffffffffffffffffffffff021916908373ffffffffffffffffffffffffffffffffffffffff1602179055505050506200064d565b6000604051905090565b600080fd5b600080fd5b600073ffffffffffffffffffffffffffffffffffffffff82169050919050565b60006200036d8262000340565b9050919050565b6200037f8162000360565b81146200038b57600080fd5b50565b6000815190506200039f8162000374565b92915050565b600080fd5b6000601f19601f8301169050919050565b7f4e487b7100000000000000000000000000000000000000000000000000000000600052604160045260246000fd5b620003f582620003aa565b810181811067ffffffffffffffff82111715620004175762000416620003bb565b5b80604052505050565b60006200042c6200032c565b90506200043a8282620003ea565b919050565b600067ffffffffffffffff8211156200045d576200045c620003bb565b5b602082029050602081019050919050565b600080fd5b60006200048a62000484846200043f565b62000420565b90508083825260208201905060208402830185811115620004b057620004af6200046e565b5b835b81811015620004dd5780620004c888826200038e565b845260208401935050602081019050620004b2565b5050509392505050565b600082601f830112620004ff57620004fe620003a5565b5b81516200051184826020860162000473565b91505092915050565b60008060006060848603121562000536576200053562000336565b5b600062000546868287016200038e565b935050602084015167ffffffffffffffff8111156200056a57620005696200033b565b5b6200057886828701620004e7565b925050604084015167ffffffffffffffff8111156200059c576200059b6200033b565b5b620005aa86828701620004e7565b9150509250925092565b7f4e487b7100000000000000000000000000000000000000000000000000000000600052603260045260246000fd5b7f4e487b7100000000000000000000000000000000000000000000000000000000600052601160045260246000fd5b600060ff82169050919050565b60006200062c8262000612565b915060ff8203620006425762000641620005e3565b5b600182019050919050565b614175806200065d6000396000f3fe6080604052600436106102075760003560e01c806356f93490116101185780639e0ae6f0116100a0578063d5bcb9b51161006f578063d5bcb9b5146106b5578063e123a231146106de578063e822eb321461071b578063eeb149e714610746578063f561bd461461076f5761020e565b80639e0ae6f014610608578063c10cf19014610633578063c51d07581461065e578063cffbfc7f1461068a5761020e565b80636d5a4fa1116100e75780636d5a4fa11461056f578063807a012d1461058657806387002c59146105b15780638c8f4cbd146105c85780638cd99f54146105f15761020e565b806356f93490146104e6578063589726fc146104f05780635ce62c7a1461051b5780636cec5dd3146105325761020e565b806330e2cc401161019b5780633e47d6f31161016a5780633e47d6f3146103ff5780633ea89e191461043c578063453e97b5146104655780634780eac11461049057806355a373d6146104bb5761020e565b806330e2cc40146103415780633a387d5a1461036c5780633c0de0b1146103975780633c50eec1146103c25761020e565b8063218ebdce116101d7578063218ebdce146102a65780632197159c146102d15780632e1a7d4d146102ed5780632f6b8143146103165761020e565b80622b169c146102105780630341a0c21461022757806305ee6c3414610252578063060bd2d0146102695761020e565b3661020e57005b005b34801561021c57600080fd5b5061022561079a565b005b34801561023357600080fd5b5061023c610d60565b6040516102499190613438565b60405180910390f35b34801561025e57600080fd5b50610267610d66565b005b34801561027557600080fd5b50610290600480360381019061028b91906134c5565b61180f565b60405161029d9190613438565b60405180910390f35b3480156102b257600080fd5b506102bb611827565b6040516102c89190613438565b60405180910390f35b6102eb60048036038101906102e6919061351e565b6118c8565b005b3480156102f957600080fd5b50610314600480360381019061030f919061351e565b61199b565b005b34801561032257600080fd5b5061032b611c9f565b6040516103389190613438565b60405180910390f35b34801561034d57600080fd5b50610356611d42565b6040516103639190613438565b60405180910390f35b34801561037857600080fd5b50610381611d48565b60405161038e9190613438565b60405180910390f35b3480156103a357600080fd5b506103ac611d4e565b6040516103b99190613438565b60405180910390f35b3480156103ce57600080fd5b506103e960048036038101906103e4919061354b565b611d54565b6040516103f69190613438565b60405180910390f35b34801561040b57600080fd5b50610426600480360381019061042191906134c5565b6120f3565b6040516104339190613438565b60405180910390f35b34801561044857600080fd5b50610463600480360381019061045e919061351e565b61210b565b005b34801561047157600080fd5b5061047a61219b565b6040516104879190613438565b60405180910390f35b34801561049c57600080fd5b506104a56121a1565b6040516104b291906135fd565b60405180910390f35b3480156104c757600080fd5b506104d06121c7565b6040516104dd9190613639565b60405180910390f35b6104ee6121eb565b005b3480156104fc57600080fd5b506105056122da565b6040516105129190613438565b60405180910390f35b34801561052757600080fd5b506105306122e0565b005b34801561053e57600080fd5b50610559600480360381019061055491906134c5565b61230c565b6040516105669190613663565b60405180910390f35b34801561057b57600080fd5b5061058461233f565b005b34801561059257600080fd5b5061059b61250c565b6040516105a891906135fd565b60405180910390f35b3480156105bd57600080fd5b506105c6612532565b005b3480156105d457600080fd5b506105ef60048036038101906105ea919061351e565b612826565b005b3480156105fd57600080fd5b50610606612870565b005b34801561061457600080fd5b5061061d612985565b60405161062a919061369f565b60405180910390f35b34801561063f57600080fd5b506106486129ab565b6040516106559190613438565b60405180910390f35b34801561066a57600080fd5b506106736129b1565b6040516106819291906136ba565b60405180910390f35b34801561069657600080fd5b5061069f612b5e565b6040516106ac9190613438565b60405180910390f35b3480156106c157600080fd5b506106dc60048036038101906106d791906136e3565b612b64565b005b3480156106ea57600080fd5b506107056004803603810190610700919061351e565b612f6e565b6040516107129190613438565b60405180910390f35b34801561072757600080fd5b50610730613039565b60405161073d919061377f565b60405180910390f35b34801561075257600080fd5b5061076d6004803603810190610768919061379a565b61305f565b005b34801561077b57600080fd5b506107846130f7565b604051610791919061369f565b60405180910390f35b6107d86040518060400160405280600e81526020017f62616c616e63696e672066756e6400000000000000000000000000000000000081525061311d565b60006107e26129b1565b9150506108246040518060400160405280600f81526020017f7661756c742076616c75653a2025730000000000000000000000000000000000815250826131b6565b60008103610d5457600160009054906101000a900473ffffffffffffffffffffffffffffffffffffffff1673ffffffffffffffffffffffffffffffffffffffff166370a08231306040518263ffffffff1660e01b81526004016108879190613663565b602060405180830381865afa1580156108a4573d6000803e3d6000fd5b505050506040513d601f19601f820116820180604052508101906108c891906137ef565b600981905550600060026009546108df919061387a565b9050600061091673c02aaa39b223fe8d0a0e5c4f27ead9083c756cc2732260fac5e5542a773aa44fbcfedf7c193bc2c59984611d54565b905061094d73c02aaa39b223fe8d0a0e5c4f27ead9083c756cc2732260fac5e5542a773aa44fbcfedf7c193bc2c599848430612b64565b600260009054906101000a900473ffffffffffffffffffffffffffffffffffffffff1673ffffffffffffffffffffffffffffffffffffffff166370a08231306040518263ffffffff1660e01b81526004016109a89190613663565b602060405180830381865afa1580156109c5573d6000803e3d6000fd5b505050506040513d601f19601f820116820180604052508101906109e991906137ef565b600b81905550600160009054906101000a900473ffffffffffffffffffffffffffffffffffffffff1673ffffffffffffffffffffffffffffffffffffffff1663095ea7b3600360009054906101000a900473ffffffffffffffffffffffffffffffffffffffff167fffffffffffffffffffffffffffffffffffffffffffffffffffffffffffffffff6040518363ffffffff1660e01b8152600401610a8e9291906138e6565b6020604051808303816000875af1158015610aad573d6000803e3d6000fd5b505050506040513d601f19601f82011682018060405250810190610ad19190613947565b50600260009054906101000a900473ffffffffffffffffffffffffffffffffffffffff1673ffffffffffffffffffffffffffffffffffffffff1663095ea7b3600360009054906101000a900473ffffffffffffffffffffffffffffffffffffffff167fffffffffffffffffffffffffffffffffffffffffffffffffffffffffffffffff6040518363ffffffff1660e01b8152600401610b719291906138e6565b6020604051808303816000875af1158015610b90573d6000803e3d6000fd5b505050506040513d601f19601f82011682018060405250810190610bb49190613947565b50600360009054906101000a900473ffffffffffffffffffffffffffffffffffffffff1673ffffffffffffffffffffffffffffffffffffffff1663e8eda9df73c02aaa39b223fe8d0a0e5c4f27ead9083c756cc2843060006040518563ffffffff1660e01b8152600401610c2b94939291906139bd565b600060405180830381600087803b158015610c4557600080fd5b505af1158015610c59573d6000803e3d6000fd5b50505050600360009054906101000a900473ffffffffffffffffffffffffffffffffffffffff1673ffffffffffffffffffffffffffffffffffffffff1663e8eda9df732260fac5e5542a773aa44fbcfedf7c193bc2c599600b543060006040518563ffffffff1660e01b8152600401610cd594939291906139bd565b600060405180830381600087803b158015610cef57600080fd5b505af1158015610d03573d6000803e3d6000fd5b50505050610d456040518060400160405280601781526020017f6c696e652034323320696e64657820636f6e747261637400000000000000000081525061311d565b610d4d612532565b5050610d5d565b610d5c612870565b5b50565b600c5481565b600160009054906101000a900473ffffffffffffffffffffffffffffffffffffffff1673ffffffffffffffffffffffffffffffffffffffff166370a08231306040518263ffffffff1660e01b8152600401610dc19190613663565b602060405180830381865afa158015610dde573d6000803e3d6000fd5b505050506040513d601f19601f82011682018060405250810190610e0291906137ef565b600981905550610e466040518060400160405280601581526020017f726562616c616e63696e6720657468206865617679000000000000000000000081525061311d565b610e4e6122e0565b6000600c54600a54610e609190613a02565b90506001600954111561149d5780600954116110de576000610ead73c02aaa39b223fe8d0a0e5c4f27ead9083c756cc2732260fac5e5542a773aa44fbcfedf7c193bc2c599600954611d54565b9050610ee673c02aaa39b223fe8d0a0e5c4f27ead9083c756cc2732260fac5e5542a773aa44fbcfedf7c193bc2c5996009548430612b64565b600260009054906101000a900473ffffffffffffffffffffffffffffffffffffffff1673ffffffffffffffffffffffffffffffffffffffff166370a08231306040518263ffffffff1660e01b8152600401610f419190613663565b602060405180830381865afa158015610f5e573d6000803e3d6000fd5b505050506040513d601f19601f82011682018060405250810190610f8291906137ef565b600b81905550600360009054906101000a900473ffffffffffffffffffffffffffffffffffffffff1673ffffffffffffffffffffffffffffffffffffffff1663e8eda9df732260fac5e5542a773aa44fbcfedf7c193bc2c599600b543060006040518563ffffffff1660e01b815260040161100094939291906139bd565b600060405180830381600087803b15801561101a57600080fd5b505af115801561102e573d6000803e3d6000fd5b505050506110706040518060400160405280601781526020017f6c696e652034333320696e64657820636f6e747261637400000000000000000081525061311d565b611078612532565b3073ffffffffffffffffffffffffffffffffffffffff16638cd99f546040518163ffffffff1660e01b8152600401600060405180830381600087803b1580156110c057600080fd5b505af11580156110d4573d6000803e3d6000fd5b5050505050611498565b61111c6040518060400160405280600881526020017f6c696e652034343100000000000000000000000000000000000000000000000081525061311d565b60008160095461112c9190613a02565b9050600060028261113d919061387a565b836111489190613a36565b9050600061117f73c02aaa39b223fe8d0a0e5c4f27ead9083c756cc2732260fac5e5542a773aa44fbcfedf7c193bc2c59984611d54565b90506111b673c02aaa39b223fe8d0a0e5c4f27ead9083c756cc2732260fac5e5542a773aa44fbcfedf7c193bc2c599848430612b64565b600160009054906101000a900473ffffffffffffffffffffffffffffffffffffffff1673ffffffffffffffffffffffffffffffffffffffff166370a08231306040518263ffffffff1660e01b81526004016112119190613663565b602060405180830381865afa15801561122e573d6000803e3d6000fd5b505050506040513d601f19601f8201168201806040525081019061125291906137ef565b600981905550600260009054906101000a900473ffffffffffffffffffffffffffffffffffffffff1673ffffffffffffffffffffffffffffffffffffffff166370a08231306040518263ffffffff1660e01b81526004016112b39190613663565b602060405180830381865afa1580156112d0573d6000803e3d6000fd5b505050506040513d601f19601f820116820180604052508101906112f491906137ef565b600b81905550600360009054906101000a900473ffffffffffffffffffffffffffffffffffffffff1673ffffffffffffffffffffffffffffffffffffffff1663e8eda9df73c02aaa39b223fe8d0a0e5c4f27ead9083c756cc26009543060006040518563ffffffff1660e01b815260040161137294939291906139bd565b600060405180830381600087803b15801561138c57600080fd5b505af11580156113a0573d6000803e3d6000fd5b50505050600360009054906101000a900473ffffffffffffffffffffffffffffffffffffffff1673ffffffffffffffffffffffffffffffffffffffff1663e8eda9df732260fac5e5542a773aa44fbcfedf7c193bc2c599600b543060006040518563ffffffff1660e01b815260040161141c94939291906139bd565b600060405180830381600087803b15801561143657600080fd5b505af115801561144a573d6000803e3d6000fd5b5050505061148c6040518060400160405280600881526020017f6c696e652034363900000000000000000000000000000000000000000000000081525061311d565b611494612532565b5050505b61180c565b60006002826114ac919061387a565b9050600360009054906101000a900473ffffffffffffffffffffffffffffffffffffffff1673ffffffffffffffffffffffffffffffffffffffff166369328dec73c02aaa39b223fe8d0a0e5c4f27ead9083c756cc283306040518463ffffffff1660e01b815260040161152193929190613a6a565b6020604051808303816000875af1158015611540573d6000803e3d6000fd5b505050506040513d601f19601f8201168201806040525081019061156491906137ef565b50600160009054906101000a900473ffffffffffffffffffffffffffffffffffffffff1673ffffffffffffffffffffffffffffffffffffffff166370a08231306040518263ffffffff1660e01b81526004016115c09190613663565b602060405180830381865afa1580156115dd573d6000803e3d6000fd5b505050506040513d601f19601f8201168201806040525081019061160191906137ef565b600981905550600061163e73c02aaa39b223fe8d0a0e5c4f27ead9083c756cc2732260fac5e5542a773aa44fbcfedf7c193bc2c599600954611d54565b905061167773c02aaa39b223fe8d0a0e5c4f27ead9083c756cc2732260fac5e5542a773aa44fbcfedf7c193bc2c5996009548430612b64565b600260009054906101000a900473ffffffffffffffffffffffffffffffffffffffff1673ffffffffffffffffffffffffffffffffffffffff166370a08231306040518263ffffffff1660e01b81526004016116d29190613663565b602060405180830381865afa1580156116ef573d6000803e3d6000fd5b505050506040513d601f19601f8201168201806040525081019061171391906137ef565b600b81905550600360009054906101000a900473ffffffffffffffffffffffffffffffffffffffff1673ffffffffffffffffffffffffffffffffffffffff1663e8eda9df732260fac5e5542a773aa44fbcfedf7c193bc2c599600b543060006040518563ffffffff1660e01b815260040161179194939291906139bd565b600060405180830381600087803b1580156117ab57600080fd5b505af11580156117bf573d6000803e3d6000fd5b505050506118016040518060400160405280601781526020017f6c696e652034333320696e64657820636f6e747261637400000000000000000081525061311d565b611809612532565b50505b50565b60106020528060005260406000206000915090505481565b600080600660009054906101000a900473ffffffffffffffffffffffffffffffffffffffff1673ffffffffffffffffffffffffffffffffffffffff1663feaf968c6040518163ffffffff1660e01b815260040160a060405180830381865afa158015611897573d6000803e3d6000fd5b505050506040513d601f19601f820116820180604052508101906118bb9190613b19565b5050509150508091505090565b6000811161190b576040517f08c379a000000000000000000000000000000000000000000000000000000000815260040161190290613c17565b60405180910390fd5b600160009054906101000a900473ffffffffffffffffffffffffffffffffffffffff1673ffffffffffffffffffffffffffffffffffffffff16632e1a7d4d826040518263ffffffff1660e01b81526004016119669190613438565b600060405180830381600087803b15801561198057600080fd5b505af1158015611994573d6000803e3d6000fd5b5050505050565b60006119a682612f6e565b905060006002826119b7919061387a565b90506000816119c4611827565b6119ce9190613c37565b9050600360009054906101000a900473ffffffffffffffffffffffffffffffffffffffff1673ffffffffffffffffffffffffffffffffffffffff166369328dec732260fac5e5542a773aa44fbcfedf7c193bc2c59983306040518463ffffffff1660e01b8152600401611a4393929190613a6a565b6020604051808303816000875af1158015611a62573d6000803e3d6000fd5b505050506040513d601f19601f82011682018060405250810190611a8691906137ef565b506000611abc732260fac5e5542a773aa44fbcfedf7c193bc2c59973c02aaa39b223fe8d0a0e5c4f27ead9083c756cc284611d54565b9050611af3732260fac5e5542a773aa44fbcfedf7c193bc2c59973c02aaa39b223fe8d0a0e5c4f27ead9083c756cc2848430612b64565b600360009054906101000a900473ffffffffffffffffffffffffffffffffffffffff1673ffffffffffffffffffffffffffffffffffffffff166369328dec73c02aaa39b223fe8d0a0e5c4f27ead9083c756cc285306040518463ffffffff1660e01b8152600401611b6693929190613a6a565b6020604051808303816000875af1158015611b85573d6000803e3d6000fd5b505050506040513d601f19601f82011682018060405250810190611ba991906137ef565b5060008382611bb89190613a36565b9050611bc3816118c8565b60008054906101000a900473ffffffffffffffffffffffffffffffffffffffff1673ffffffffffffffffffffffffffffffffffffffff16639dc29fac33886040518363ffffffff1660e01b8152600401611c1e929190613c79565b600060405180830381600087803b158015611c3857600080fd5b505af1158015611c4c573d6000803e3d6000fd5b505050503373ffffffffffffffffffffffffffffffffffffffff166108fc829081150290604051600060405180830381858888f19350505050158015611c96573d6000803e3d6000fd5b50505050505050565b6000600160009054906101000a900473ffffffffffffffffffffffffffffffffffffffff1673ffffffffffffffffffffffffffffffffffffffff166370a08231306040518263ffffffff1660e01b8152600401611cfc9190613663565b602060405180830381865afa158015611d19573d6000803e3d6000fd5b505050506040513d601f19601f82011682018060405250810190611d3d91906137ef565b905090565b600d5481565b60085481565b600e5481565b6000606073c02aaa39b223fe8d0a0e5c4f27ead9083c756cc273ffffffffffffffffffffffffffffffffffffffff168573ffffffffffffffffffffffffffffffffffffffff161480611de5575073c02aaa39b223fe8d0a0e5c4f27ead9083c756cc273ffffffffffffffffffffffffffffffffffffffff168473ffffffffffffffffffffffffffffffffffffffff16145b15611ed957600267ffffffffffffffff811115611e0557611e04613ca2565b5b604051908082528060200260200182016040528015611e335781602001602082028036833780820191505090505b5090508481600081518110611e4b57611e4a613cd1565b5b602002602001019073ffffffffffffffffffffffffffffffffffffffff16908173ffffffffffffffffffffffffffffffffffffffff16815250508381600181518110611e9a57611e99613cd1565b5b602002602001019073ffffffffffffffffffffffffffffffffffffffff16908173ffffffffffffffffffffffffffffffffffffffff1681525050612027565b600367ffffffffffffffff811115611ef457611ef3613ca2565b5b604051908082528060200260200182016040528015611f225781602001602082028036833780820191505090505b5090508481600081518110611f3a57611f39613cd1565b5b602002602001019073ffffffffffffffffffffffffffffffffffffffff16908173ffffffffffffffffffffffffffffffffffffffff168152505073c02aaa39b223fe8d0a0e5c4f27ead9083c756cc281600181518110611f9d57611f9c613cd1565b5b602002602001019073ffffffffffffffffffffffffffffffffffffffff16908173ffffffffffffffffffffffffffffffffffffffff16815250508381600281518110611fec57611feb613cd1565b5b602002602001019073ffffffffffffffffffffffffffffffffffffffff16908173ffffffffffffffffffffffffffffffffffffffff16815250505b6000737a250d5630b4cf539739df2c5dacb4c659f2488d73ffffffffffffffffffffffffffffffffffffffff1663d06ca61f85846040518363ffffffff1660e01b8152600401612078929190613dbe565b600060405180830381865afa158015612095573d6000803e3d6000fd5b505050506040513d6000823e3d601f19601f820116820180604052508101906120be9190613f18565b905080600183516120cf9190613a02565b815181106120e0576120df613cd1565b5b6020026020010151925050509392505050565b600f6020528060005260406000206000915090505481565b60008054906101000a900473ffffffffffffffffffffffffffffffffffffffff1673ffffffffffffffffffffffffffffffffffffffff16639dc29fac33836040518363ffffffff1660e01b8152600401612166929190613c79565b600060405180830381600087803b15801561218057600080fd5b505af1158015612194573d6000803e3d6000fd5b5050505050565b600b5481565b600160009054906101000a900473ffffffffffffffffffffffffffffffffffffffff1681565b60008054906101000a900473ffffffffffffffffffffffffffffffffffffffff1681565b67016345785d8a00003411612235576040517f08c379a000000000000000000000000000000000000000000000000000000000815260040161222c90613fd3565b60405180910390fd5b61223d61233f565b600061224834613252565b905060008054906101000a900473ffffffffffffffffffffffffffffffffffffffff1673ffffffffffffffffffffffffffffffffffffffff166340c10f1933836040518363ffffffff1660e01b81526004016122a5929190613c79565b600060405180830381600087803b1580156122bf57600080fd5b505af11580156122d3573d6000803e3d6000fd5b5050505050565b60125481565b6305f5e1006122ed611827565b600d546122fa9190613c37565b612304919061387a565b600c81905550565b60116020528060005260406000206000915054906101000a900473ffffffffffffffffffffffffffffffffffffffff1681565b6000479050600160009054906101000a900473ffffffffffffffffffffffffffffffffffffffff1673ffffffffffffffffffffffffffffffffffffffff1663d0e30db0826040518263ffffffff1660e01b81526004016000604051808303818588803b1580156123ae57600080fd5b505af11580156123c2573d6000803e3d6000fd5b50505050506000600160009054906101000a900473ffffffffffffffffffffffffffffffffffffffff1673ffffffffffffffffffffffffffffffffffffffff166370a08231306040518263ffffffff1660e01b81526004016124249190613663565b602060405180830381865afa158015612441573d6000803e3d6000fd5b505050506040513d601f19601f8201168201806040525081019061246591906137ef565b9050600160009054906101000a900473ffffffffffffffffffffffffffffffffffffffff1673ffffffffffffffffffffffffffffffffffffffff1663a9059cbb30836040518363ffffffff1660e01b81526004016124c4929190613c79565b6020604051808303816000875af11580156124e3573d6000803e3d6000fd5b505050506040513d601f19601f820116820180604052508101906125079190613947565b505050565b600260009054906101000a900473ffffffffffffffffffffffffffffffffffffffff1681565b600460009054906101000a900473ffffffffffffffffffffffffffffffffffffffff1673ffffffffffffffffffffffffffffffffffffffff166370a08231306040518263ffffffff1660e01b815260040161258d9190613663565b602060405180830381865afa1580156125aa573d6000803e3d6000fd5b505050506040513d601f19601f820116820180604052508101906125ce91906137ef565b600a81905550600560009054906101000a900473ffffffffffffffffffffffffffffffffffffffff1673ffffffffffffffffffffffffffffffffffffffff166370a08231306040518263ffffffff1660e01b815260040161262f9190613663565b602060405180830381865afa15801561264c573d6000803e3d6000fd5b505050506040513d601f19601f8201168201806040525081019061267091906137ef565b600d81905550600160009054906101000a900473ffffffffffffffffffffffffffffffffffffffff1673ffffffffffffffffffffffffffffffffffffffff166370a08231306040518263ffffffff1660e01b81526004016126d19190613663565b602060405180830381865afa1580156126ee573d6000803e3d6000fd5b505050506040513d601f19601f8201168201806040525081019061271291906137ef565b6009819055506127206122e0565b6127616040518060400160405280601481526020017f77657468206f6e20636f6e74726163743a2025730000000000000000000000008152506009546131b6565b6127a26040518060400160405280601581526020017f6157657468206f6e20636f6e74726163743a2025730000000000000000000000815250600a546131b6565b6127e36040518060400160405280601581526020017f6157627463206f6e20636f6e74726163743a2025730000000000000000000000815250600d546131b6565b6128246040518060400160405280601c81526020017f6157627463206f6e20636f6e74726163742076616c7565203a20257300000000815250600c546131b6565b565b3373ffffffffffffffffffffffffffffffffffffffff166108fc829081150290604051600060405180830381858888f1935050505015801561286c573d6000803e3d6000fd5b5050565b6128ae6040518060400160405280601a81526020017f726562616c616e63696e67206578697374696e67207661756c7400000000000081525061311d565b6000600a54600c546128c09190613a36565b9050600c548160646128d29190613c37565b6128dc919061387a565b60128190555060d260125411156129385761292b6040518060400160405280601381526020017f696e64657820697320657468206865617679210000000000000000000000000081525061311d565b612933610d66565b612982565b60be60125410612981576129806040518060400160405280601581526020017f6e6f20726562616c616e6365207265717569726564000000000000000000000081525061311d565b5b5b50565b600560009054906101000a900473ffffffffffffffffffffffffffffffffffffffff1681565b600a5481565b60008060006129be611c9f565b9050600560009054906101000a900473ffffffffffffffffffffffffffffffffffffffff1673ffffffffffffffffffffffffffffffffffffffff166370a08231306040518263ffffffff1660e01b8152600401612a1b9190613663565b602060405180830381865afa158015612a38573d6000803e3d6000fd5b505050506040513d601f19601f82011682018060405250810190612a5c91906137ef565b600d81905550612a6a6122e0565b600460009054906101000a900473ffffffffffffffffffffffffffffffffffffffff1673ffffffffffffffffffffffffffffffffffffffff166370a08231306040518263ffffffff1660e01b8152600401612ac59190613663565b602060405180830381865afa158015612ae2573d6000803e3d6000fd5b505050506040513d601f19601f82011682018060405250810190612b0691906137ef565b600a81905550612b3060405180606001604052806032815260200161410e60329139600a546131b6565b6000600c54600a54612b429190613a36565b90508181612b509190613a36565b935083819350935050509091565b60095481565b8473ffffffffffffffffffffffffffffffffffffffff1663095ea7b3737a250d5630b4cf539739df2c5dacb4c659f2488d856040518363ffffffff1660e01b8152600401612bb3929190613c79565b6020604051808303816000875af1158015612bd2573d6000803e3d6000fd5b505050506040513d601f19601f82011682018060405250810190612bf69190613947565b50606073c02aaa39b223fe8d0a0e5c4f27ead9083c756cc273ffffffffffffffffffffffffffffffffffffffff168673ffffffffffffffffffffffffffffffffffffffff161480612c86575073c02aaa39b223fe8d0a0e5c4f27ead9083c756cc273ffffffffffffffffffffffffffffffffffffffff168573ffffffffffffffffffffffffffffffffffffffff16145b15612d7a57600267ffffffffffffffff811115612ca657612ca5613ca2565b5b604051908082528060200260200182016040528015612cd45781602001602082028036833780820191505090505b5090508581600081518110612cec57612ceb613cd1565b5b602002602001019073ffffffffffffffffffffffffffffffffffffffff16908173ffffffffffffffffffffffffffffffffffffffff16815250508481600181518110612d3b57612d3a613cd1565b5b602002602001019073ffffffffffffffffffffffffffffffffffffffff16908173ffffffffffffffffffffffffffffffffffffffff1681525050612ec8565b600367ffffffffffffffff811115612d9557612d94613ca2565b5b604051908082528060200260200182016040528015612dc35781602001602082028036833780820191505090505b5090508581600081518110612ddb57612dda613cd1565b5b602002602001019073ffffffffffffffffffffffffffffffffffffffff16908173ffffffffffffffffffffffffffffffffffffffff168152505073c02aaa39b223fe8d0a0e5c4f27ead9083c756cc281600181518110612e3e57612e3d613cd1565b5b602002602001019073ffffffffffffffffffffffffffffffffffffffff16908173ffffffffffffffffffffffffffffffffffffffff16815250508481600281518110612e8d57612e8c613cd1565b5b602002602001019073ffffffffffffffffffffffffffffffffffffffff16908173ffffffffffffffffffffffffffffffffffffffff16815250505b737a250d5630b4cf539739df2c5dacb4c659f2488d73ffffffffffffffffffffffffffffffffffffffff166338ed173985858486426040518663ffffffff1660e01b8152600401612f1d959493929190613ff3565b6000604051808303816000875af1158015612f3c573d6000803e3d6000fd5b505050506040513d6000823e3d601f19601f82011682018060405250810190612f659190613f18565b50505050505050565b600080612f796129b1565b50905060008060009054906101000a900473ffffffffffffffffffffffffffffffffffffffff1673ffffffffffffffffffffffffffffffffffffffff166318160ddd6040518163ffffffff1660e01b8152600401602060405180830381865afa158015612fea573d6000803e3d6000fd5b505050506040513d601f19601f8201168201806040525081019061300e91906137ef565b905083818361301d919061387a565b6130279190613c37565b600e81905550600e5492505050919050565b600360009054906101000a900473ffffffffffffffffffffffffffffffffffffffff1681565b600360009054906101000a900473ffffffffffffffffffffffffffffffffffffffff1673ffffffffffffffffffffffffffffffffffffffff1663e8eda9df83833060006040518563ffffffff1660e01b81526004016130c194939291906139bd565b600060405180830381600087803b1580156130db57600080fd5b505af11580156130ef573d6000803e3d6000fd5b505050505050565b600460009054906101000a900473ffffffffffffffffffffffffffffffffffffffff1681565b6131b38160405160240161313191906140bb565b6040516020818303038152906040527f41304fac000000000000000000000000000000000000000000000000000000007bffffffffffffffffffffffffffffffffffffffffffffffffffffffff19166020820180517bffffffffffffffffffffffffffffffffffffffffffffffffffffffff83818316178352505050506133f6565b50565b61324e82826040516024016131cc9291906140dd565b6040516020818303038152906040527fb60e72cc000000000000000000000000000000000000000000000000000000007bffffffffffffffffffffffffffffffffffffffffffffffffffffffff19166020820180517bffffffffffffffffffffffffffffffffffffffffffffffffffffffff83818316178352505050506133f6565b5050565b60008060008054906101000a900473ffffffffffffffffffffffffffffffffffffffff1673ffffffffffffffffffffffffffffffffffffffff166318160ddd6040518163ffffffff1660e01b8152600401602060405180830381865afa1580156132c0573d6000803e3d6000fd5b505050506040513d601f19601f820116820180604052508101906132e491906137ef565b0361330a5781600860008282546132fb9190613a36565b925050819055508190506133f1565b60008060009054906101000a900473ffffffffffffffffffffffffffffffffffffffff1673ffffffffffffffffffffffffffffffffffffffff166318160ddd6040518163ffffffff1660e01b8152600401602060405180830381865afa158015613378573d6000803e3d6000fd5b505050506040513d601f19601f8201168201806040525081019061339c91906137ef565b905060006133a86129b1565b509050600084826133b99190613a02565b905060008186856133ca9190613c37565b6133d4919061387a565b90506133de6129b1565b5060086000829190505550809450505050505b919050565b60008151905060006a636f6e736f6c652e6c6f679050602083016000808483855afa5050505050565b6000819050919050565b6134328161341f565b82525050565b600060208201905061344d6000830184613429565b92915050565b6000604051905090565b600080fd5b600080fd5b600073ffffffffffffffffffffffffffffffffffffffff82169050919050565b600061349282613467565b9050919050565b6134a281613487565b81146134ad57600080fd5b50565b6000813590506134bf81613499565b92915050565b6000602082840312156134db576134da61345d565b5b60006134e9848285016134b0565b91505092915050565b6134fb8161341f565b811461350657600080fd5b50565b600081359050613518816134f2565b92915050565b6000602082840312156135345761353361345d565b5b600061354284828501613509565b91505092915050565b6000806000606084860312156135645761356361345d565b5b6000613572868287016134b0565b9350506020613583868287016134b0565b925050604061359486828701613509565b9150509250925092565b6000819050919050565b60006135c36135be6135b984613467565b61359e565b613467565b9050919050565b60006135d5826135a8565b9050919050565b60006135e7826135ca565b9050919050565b6135f7816135dc565b82525050565b600060208201905061361260008301846135ee565b92915050565b6000613623826135ca565b9050919050565b61363381613618565b82525050565b600060208201905061364e600083018461362a565b92915050565b61365d81613487565b82525050565b60006020820190506136786000830184613654565b92915050565b6000613689826135ca565b9050919050565b6136998161367e565b82525050565b60006020820190506136b46000830184613690565b92915050565b60006040820190506136cf6000830185613429565b6136dc6020830184613429565b9392505050565b600080600080600060a086880312156136ff576136fe61345d565b5b600061370d888289016134b0565b955050602061371e888289016134b0565b945050604061372f88828901613509565b935050606061374088828901613509565b9250506080613751888289016134b0565b9150509295509295909350565b6000613769826135ca565b9050919050565b6137798161375e565b82525050565b60006020820190506137946000830184613770565b92915050565b600080604083850312156137b1576137b061345d565b5b60006137bf858286016134b0565b92505060206137d085828601613509565b9150509250929050565b6000815190506137e9816134f2565b92915050565b6000602082840312156138055761380461345d565b5b6000613813848285016137da565b91505092915050565b7f4e487b7100000000000000000000000000000000000000000000000000000000600052601260045260246000fd5b7f4e487b7100000000000000000000000000000000000000000000000000000000600052601160045260246000fd5b60006138858261341f565b91506138908361341f565b9250826138a05761389f61381c565b5b828204905092915050565b6000819050919050565b60006138d06138cb6138c6846138ab565b61359e565b61341f565b9050919050565b6138e0816138b5565b82525050565b60006040820190506138fb6000830185613654565b61390860208301846138d7565b9392505050565b60008115159050919050565b6139248161390f565b811461392f57600080fd5b50565b6000815190506139418161391b565b92915050565b60006020828403121561395d5761395c61345d565b5b600061396b84828501613932565b91505092915050565b6000819050919050565b600061ffff82169050919050565b60006139a76139a261399d84613974565b61359e565b61397e565b9050919050565b6139b78161398c565b82525050565b60006080820190506139d26000830187613654565b6139df6020830186613429565b6139ec6040830185613654565b6139f960608301846139ae565b95945050505050565b6000613a0d8261341f565b9150613a188361341f565b9250828203905081811115613a3057613a2f61384b565b5b92915050565b6000613a418261341f565b9150613a4c8361341f565b9250828201905080821115613a6457613a6361384b565b5b92915050565b6000606082019050613a7f6000830186613654565b613a8c6020830185613429565b613a996040830184613654565b949350505050565b600069ffffffffffffffffffff82169050919050565b613ac081613aa1565b8114613acb57600080fd5b50565b600081519050613add81613ab7565b92915050565b6000819050919050565b613af681613ae3565b8114613b0157600080fd5b50565b600081519050613b1381613aed565b92915050565b600080600080600060a08688031215613b3557613b3461345d565b5b6000613b4388828901613ace565b9550506020613b5488828901613b04565b9450506040613b65888289016137da565b9350506060613b76888289016137da565b9250506080613b8788828901613ace565b9150509295509295909350565b600082825260208201905092915050565b7f506c6561736520696e63726561736520746865206d696e696d756d20416d6f7560008201527f6e7420746f20756e777261702100000000000000000000000000000000000000602082015250565b6000613c01602d83613b94565b9150613c0c82613ba5565b604082019050919050565b60006020820190508181036000830152613c3081613bf4565b9050919050565b6000613c428261341f565b9150613c4d8361341f565b9250828202613c5b8161341f565b91508282048414831517613c7257613c7161384b565b5b5092915050565b6000604082019050613c8e6000830185613654565b613c9b6020830184613429565b9392505050565b7f4e487b7100000000000000000000000000000000000000000000000000000000600052604160045260246000fd5b7f4e487b7100000000000000000000000000000000000000000000000000000000600052603260045260246000fd5b600081519050919050565b600082825260208201905092915050565b6000819050602082019050919050565b613d3581613487565b82525050565b6000613d478383613d2c565b60208301905092915050565b6000602082019050919050565b6000613d6b82613d00565b613d758185613d0b565b9350613d8083613d1c565b8060005b83811015613db1578151613d988882613d3b565b9750613da383613d53565b925050600181019050613d84565b5085935050505092915050565b6000604082019050613dd36000830185613429565b8181036020830152613de58184613d60565b90509392505050565b600080fd5b6000601f19601f8301169050919050565b613e0d82613df3565b810181811067ffffffffffffffff82111715613e2c57613e2b613ca2565b5b80604052505050565b6000613e3f613453565b9050613e4b8282613e04565b919050565b600067ffffffffffffffff821115613e6b57613e6a613ca2565b5b602082029050602081019050919050565b600080fd5b6000613e94613e8f84613e50565b613e35565b90508083825260208201905060208402830185811115613eb757613eb6613e7c565b5b835b81811015613ee05780613ecc88826137da565b845260208401935050602081019050613eb9565b5050509392505050565b600082601f830112613eff57613efe613dee565b5b8151613f0f848260208601613e81565b91505092915050565b600060208284031215613f2e57613f2d61345d565b5b600082015167ffffffffffffffff811115613f4c57613f4b613462565b5b613f5884828501613eea565b91505092915050565b7f506c6561736520696e63726561736520746865206d696e696d756d20636f6e7460008201527f7269627574696f6e20746f20302e312045746865722100000000000000000000602082015250565b6000613fbd603683613b94565b9150613fc882613f61565b604082019050919050565b60006020820190508181036000830152613fec81613fb0565b9050919050565b600060a0820190506140086000830188613429565b6140156020830187613429565b81810360408301526140278186613d60565b90506140366060830185613654565b6140436080830184613429565b9695505050505050565b600081519050919050565b60005b8381101561407657808201518184015260208101905061405b565b60008484015250505050565b600061408d8261404d565b6140978185613b94565b93506140a7818560208601614058565b6140b081613df3565b840191505092915050565b600060208201905081810360008301526140d58184614082565b905092915050565b600060408201905081810360008301526140f78185614082565b90506141066020830184613429565b939250505056fe6177657468206f6e20636f6e7472616374202866726f6d202763616c63756c617465496e64657856616c756527293a202573a2646970667358221220fcee6e47076fa613fc2c0268bd4049124fd664a65e1b9f9cb595124bc098d78c64736f6c63430008110033",
  "linkReferences": {},
  "deployedLinkReferences": {}
}